:020000040800F2
:10000000901600205902000867270008F52500080F
:1000100065270008310A00089D350008000000002F
:100020000000000000000000000000009D0100082A
:10003000990A000800000000F1010008B92F00082B
:1000400073020008730200087302000873020008BC
:1000500073020008730200087302000873020008AC
:10006000730200087302000873020008730200089C
:10007000730200087302000873020008730200088C
:10008000730200087302000873020008730200087C
:10009000730200087302000873020008730200086C
:1000A0007302000873020008A930000873020008F8
:1000B000730200087302000873020008730200084C
:1000C000730200087302000873020008730200083C
:1000D000730200087302000873020008730200082C
:1000E000730200087302000873020008730200081C
:1000F000730200087302000873020008730200080C
:1001000073020008730200087302000873020008FB
:1001100073020008730200087302000873020008EB
:1001200073020008730200087302000873020008DB
:1001300073020008730200087302000873020008CB
:1001400073020008730200087302000873020008BB
:1001500073020008730200087302000873020008AB
:10016000730200087302000873020008730200089B
:100170007302000873020008000000000000000085
:100180007302000873020008DFF80CD000F0BAFA1E
:1001900000480047953E0008901600202B4B196838
:1001A0000868B0E8F04F80F30988BFF36F8F4FF015
:1001B000000080F3118870470000000006480068C6
:1001C000006880F3088862B661B6BFF34F8FBFF353
:1001D0006F8F00DF00BF00BF08ED00E0DFF80C000C
:1001E000016841F470010160704700BF88ED00E0D4
:1001F000EFF30980BFF36F8F144B1A681EF0100FD6
:1002000008BF20ED108A20E9F04F106008B44FF0CD
:10021000500080F31188BFF34F8FBFF36F8F04F04E
:100220006BF94FF0000080F3118808BC196808686A
:10023000B0E8F04F1EF0100F08BFB0EC108A80F34A
:100240000988BFF36F8F704700BF00BF40000020D8
:10025000EFF30580704700000648804706480047D6
:10026000FEE7FEE7FEE7FEE7FEE7FEE7FEE7FEE766
:10027000FEE7FEE765300008890100082DE9F05F20
:100280000546002092469B46884606468146402405
:100290001BE0284641464746224600F06AF853468E
:1002A0005A46C01A914110D311461846224600F012
:1002B00051F82D1A67EB01084F4622460120002114
:1002C00000F048F817EB00094E41201EA4F101048C
:1002D000DFDC484631462A464346BDE8F09F40EA07
:1002E00001039B0703D009E008C9121F08C0042AB4
:1002F000FAD203E011F8013B00F8013B521EF9D29B
:10030000704700F0004230F000400AD0C10D01F506
:100310006071C0F3160042EA0151C2084007114360
:10032000704700200146704730B50B46014600205B
:100330002022012409E021FA02F59D4205D303FAA7
:1003400002F5491B04FA02F52844151EA2F1010228
:10035000F1DC30BD202A04DB203A00FA02F1002053
:1003600070479140C2F1200320FA03F319439040F3
:100370007047202A04DB203A21FA02F0002170475E
:1003800021FA02F3D040C2F12002914008431946FD
:1003900070472DE9FE4F804681EA0300C00F0C46EE
:1003A000009021F0004123F00045B8EB0200A94184
:1003B00005D24046214690461C460B46024623F095
:1003C0000040104347D0270DC7F30A00C3F30A517A
:1003D0000290401A019040286BDAC3F3130040F4F6
:1003E000801B0098924620B10023D2EB030A63EBF6
:1003F0000B0B01985946C0F140025046FFF7AAFF87
:1004000006460D4650465946019A00F08DF910EB0C
:1004100008006141002487EA115284EAE7731A4315
:1004200040D0009A62B3019A012A4FEA075215DCC4
:10043000001B61EB02014FF0004202EA0752CDE9D6
:100440000042001C41F5801132462B4600F08DF928
:1004500003B0BDE8F08F40462146F9E7001B61EB91
:100460000201001C41F5801300185B412018A2F521
:10047000001747EB030140EAD570B6196D4111E052
:100480006D084FEA360645EAC0754FEA0752001B71
:1004900061EB0201001C41F5801149084FEA300070
:1004A0000019514132462B4603B0BDE8F04F00F031
:1004B0004DB90098012240000023D0EB020263EB0B
:1004C000E073009821464FEAE074B8EB000061EB5E
:1004D0000401E9E783F000435BE781F0004158E75E
:1004E0002DE9FE4F81EA030404F0004421F00041AD
:1004F00000944FF0000B23F0004350EA01045ED05B
:1005000052EA03045BD0C3F30A54C1F30A552C44E6
:10051000A4F2F3340194A0FB0254C1F3130141F49B
:100520008011C3F3130343F4801301FB024400FB67
:10053000034E840A970A44EA815447EA8357A4FB8E
:10054000076802958D0A05FB07854FEA932C04FB8B
:100550000C542705029D4FEA065847EA1637B5EBBB
:1005600008056EEB070C870E920E47EA811742EAE8
:100570008312A7FB0201B6EB0B0164EB00042B0D09
:1005800043EA0C335E1844EB1C50DA465146E7FB55
:100590000201C5F313044FEA0B3343EA14534FEA45
:1005A0000432019C43EA0603A4F10C040294009C6B
:1005B000CDE900B400F0D9F803B0BDE8F08F002019
:1005C0000146F9E72DE9F04D81EA030404F0004B00
:1005D00021F0004514464FF0000A23F0004150EA94
:1005E000050220D054EA01021DD0C5F30A57024685
:1005F000C5F31303C1F31300C1F30A5640F4801589
:1006000043F48013A7EB0608101BD64608F2FD380A
:1006100073EB050002D308F1010801E092185B4179
:10062000B8F1000F03DA00200146BDE8F08D00208C
:100630004FF48011064684460EE0171B73EB050746
:1006400005D3121B63EB050306434CEA010C490872
:100650004FEA300092185B4150EA0107EDD152EAAF
:10066000030012D082EA040083EA0501084305D0A2
:10067000101BAB4106D20122002306E000224FF0FE
:10068000004302E06FF0010253101AEB06004CEB3E
:10069000085110EB0A0041EB0B01BDE8F04D00F0F2
:1006A00055B8C1F30A52C1F3130140F2FF3341F4CC
:1006B00080119A4202DA00200146704740F233432B
:1006C0009A42A2F2334202DC5242FFF752BEFFF7D7
:1006D00041BE000030B5041E71F1000404DB4FF090
:1006E0000044404264EB0101141E73F1000405DB79
:1006F0001C464FF00043524263EB0403994208BF8B
:10070000904230BD064C074D06E0E06840F0010322
:1007100094E8070098471034AC42F6D3FFF738FD51
:10072000D0480008F0480008202A06DBCB17203A02
:1007300041FA02F043EAE07306E041FA02F3D040E6
:10074000C2F12002914008431946704710B5141EAB
:1007500073F1000408DA401C41F1000192185B417A
:100760001A4301D120F0010010BD2DE9F04D924651
:100770009B4611B1B1FA81F202E0B0FA80F2203268
:100780009046FFF7E7FD04460F4640EA0A0041EABB
:100790000B0153465A46084313D0114653EA010051
:1007A00019D0C8F140025046FFF7E3FD05460E465A
:1007B000504659464246FFF7CDFD084305D001207B
:1007C00004E020463946BDE8F08D0020054346EAA6
:1007D000E0762C4337430A986305E40AA0EB08004F
:1007E0000022FD0A44EA47540A3002D5002001469F
:1007F000E9E7010510196941DDE90845001969417A
:10080000BDE8F04DA2E7000000B58FB04FF4807056
:1008100006906020009000200790089009900590B5
:100820000B900C900D900A4802F0B4F960B941F2B7
:1008300088326946064800F047FE28B90549044851
:1008400001F0A2FF002800D001200FB000BD000081
:10085000A405002080A9030010B51C4C1A48206094
:10086000204600F074FE60BB00F032F802206060A9
:100870004FF40001042091FAA1F1A060B1FA81F1D6
:100880000020491EC4E903016061A061204600F018
:100890007BFEB0B9204602F02FF908B1042010BD4C
:1008A00001210A4802F0C6F858B90121074802F0B0
:1008B00043F830B901206060044800F065FE00286C
:1008C000EDD0012010BD0000001000A0A405002004
:1008D000154800B5016D87B041F480710165016D67
:1008E00001F480710591016B41F480710163016B2A
:1008F00021F480710163C16C41F01001C164C06CCE
:10090000694600F0100005904FF47C4000900220F2
:10091000019000200290032003900A2004900348D5
:1009200000F04CFB07B000BD001002400010004872
:1009300030B58FB004464FF480700690EB200090E5
:100940004FF4406007904FF4005003904FF4404044
:100950000890AA200290019100214FF04070099068
:100960000420CDE90410CDE90A210C9141F288352B
:100970000D912A466946074800F0A6FD30B92A467F
:100980002146044800F05AFE002800D001200FB094
:1009900030BD0000A40500202DE9F0438146C8B217
:1009A000C0F580758FB0954200D915468E180C465B
:1009B00038204FF4807100904FF44060CDE906106C
:1009C0004801039000204FF04072CDE908020590E5
:1009D0000B900C9041F2883788460D9013480A9589
:1009E000019402F0D7F880B93A4669460F4800F002
:1009F0006BFD50B93A4649460C4800F081FE20B9DB
:100A000039460A4801F0C0FE18B101200FB0BDE818
:100A1000F0832C4404F58070A944B04201D9351B01
:100A200000E04546B442D9D30020EFE7A4050020FA
:100A3000FEE700001749884201D1002070471549A0
:100A40002031884201D1012070471249403188424B
:100A500001D1022070470F496031884201D1032043
:100A600070470C498031884201D104207047094900
:100A7000A031884201D1052070470649C031884223
:100A800001D1062070470349E0318842D5D10720C3
:100A90007047000000600140704700002DE9F047FA
:100AA00004464079002715460E46012809D04FF02C
:100AB000010984F80590022020713068042803D0D1
:100AC00044E00220BDE8F0874FF003080DBB00F0C2
:100AD00057FB074605E000BF00F052FBC01B012892
:100AE0000FD82068406B0004F6D4012000F057FABC
:100AF0002168B069086416E000F042FBC01B0128C1
:100B000007D9206940F00800206184F804800320A0
:100B1000D8E72068406B0028EEDB012000F03FFAA8
:100B20002168B06948642068816C40F2FF32AA40B5
:100B30009143F269AA40114381642068C16CFF228D
:100B4000AA409143326AAA401143C1643069012826
:100B500008D12268916B1F20A84081437069A8408A
:100B6000084390632268D06B0721A9408843B3688B
:100B700031681943F3681943A9400143D1632068E0
:100B800001684FF48042AA409143016022681168D5
:100B900040F6FC70A84081437068A840084310608C
:100BA00020680168C022AA409143016084F8049043
:100BB0000020607186E770B5040003D0207900251D
:100BC00010B105E0012070BD6571204600F008F805
:100BD00002202071256101202071002070BD0000DD
:100BE00000B500680C4987B0884213D10B48816D6D
:100BF00041F000518165806D694600F0005005901C
:100C00003020009003200190002002904FF090408F
:100C100000F0D4F907B000BD00740040001002409D
:100C200030B54279012A12D00122427102230371A8
:100C300003681D6802FA01F425431D60002901685C
:100C40000B6806D0C3F383430F2B0AD00DE00220BC
:100C500030BDC3F383030F2B07D14B6843F001036F
:100C600002E04B6843F002034B60027100214171C6
:100C7000084630BD70B5040006D02068FFF7DAFEE4
:100C8000374D55F8200008B1012070BD204600F016
:100C90006FF834480168491C016000683249012836
:100CA00019D13248026822F0804202600268A368CB
:100CB0001A430260026822F47F0202602279012A4C
:100CC00005D10268A38901EB03431A43026002685D
:100CD00042F0004202602068026822F47142026021
:100CE0002268106823691843D4E905363343184352
:100CF00010602068026822F00F020260D4E9072029
:100D00000243206803681A4302602068826822F464
:100D10005F02826020688268636A1A43238D01EB58
:100D200003410A4382602068416801F00701416085
:100D3000E06A216B000240EAC10120684268114369
:100D400041602068016841F080010160012084F861
:100D500034002068FFF76EFE45F82040002070BD8B
:100D600084050020100000200000FFFF006001400B
:100D700000B5114887B0416800291BD10168491CA2
:100D80000160012908D10D48016E41F080710166B2
:100D9000006E00F0807005904FF4207000900220EB
:100DA00001900020029003900620049069460448B8
:100DB00000F004F907B000BD080000200010024058
:100DC0000010004870B590F84C400023C4B1FF2CCF
:100DD00016D0046825680C4E3540256004686FF312
:100DE0000F01012A256804D045EA01212160026330
:100DF00007E04FF4802646EA01210D432560F6E71F
:100E00000123184670BD0000FFFFFBF870B5040019
:100E100031D03C492068884205D1606801282AD039
:100E2000E068012827D00125002065642063A564BF
:100E30002065204600F06CF82068016821F400214C
:100E40000160207A01282068016816D021F0005145
:100E50000160607A01282068016811D021F4001136
:100E600001602068016846F2087291430160E06801
:100E7000022808D00CE0012070BD41F00051E7E7E6
:100E800041F40011ECE720680168626911430160D8
:100E9000207C0128206801682ED021F0100101601B
:100EA000607C01282068016829D021F020010160C0
:100EB00020684169144A1140416120684169E26932
:100EC000124B1143228C03EB0242636A5B1E1A43EE
:100ED0001143416160686063E068A063A069E063FA
:100EE000207C84F840002068016841F00101016025
:100EF00084F84C50002070BD41F01001CFE741F064
:100F00002001D4E70061014000FF001C0000FFFF4A
:100F100000B5114887B0416800291BD10168491C00
:100F20000160012908D10D48016E41F08071016610
:100F3000006E00F0807005904FF420700090022049
:100F40000190002002900390062004906946044816
:100F500000F034F807B000BD080000200010024087
:100F600000100048C8B101680A6822F00E020A6049
:100F700001680A6822F001020A6090F84410036CCC
:100F800001F01C02012101FA02F25A6080F82510DA
:100F9000002180F82410084670470120704770B582
:100FA000044600F0EDF80546601C00D0641C00F01B
:100FB000E7F8401BA042FAD370BD00002DE9F84FBE
:100FC000DFF898B100234FF0010C4FF0030A4FF007
:100FD0000F090BF1040EB9E00CFA03F4224070D0B3
:100FE0004D68022D01D0122D0ED1DD0800EB8508D1
:100FF000D8F820505E07F70E09FA07F6B5430E69D8
:10100000BE402E43C8F8206007685E0091F8048057
:101010000AFA06F508F00308AF4308FA06F848EAAA
:101020000708C0F800804F68012F05D0022F03D0B9
:10103000112F01D0122F13D1D0F80880CF6828EAE1
:101040000508B74047EA08078760D0F804800F79A1
:1010500028EA0408C7F300179F4047EA08074760DB
:10106000D1F804806FEA0807BF0706D1C76AA74313
:10107000C8F3C0049C403C43C462C468AC438D6860
:10108000B5402543C5604C68E4005ED5344C256E00
:1010900045F001052566246E23F0030504F00104E4
:1010A0000094304C2E19B4689D072F0F09FA07F5EC
:1010B000AC43B0F1904F05D02B4DA84204D101258F
:1010C0001CE042E0002519E0284DA84201D102258C
:1010D00014E0274DA84201D103250FE0254DA84279
:1010E00001D104250AE0244DA84201D1052505E0DF
:1010F000224DA84201D1062500E00725BD40254329
:10110000B560DBF800405D464E689443F60300D5B9
:1011100014432C60DEF8004075464E689443B603D5
:1011200000D514432C600D4D08352C684E6894434F
:10113000F60200D514432C60084D0C352C684E681F
:101140009443B60200D514432C605B1C0A6832FA43
:1011500003F57FF441AFBDE8F88F000000040140C3
:101160000010024000000140000400480008004850
:10117000000C004800100048001400480018004807
:101180000148006870470000140000200248016810
:10119000491C0160704700001400002010B50320B6
:1011A00000F0ACF8002000F005F800F03BF800205B
:1011B00010BD000000B5014687B000221A2000F0E3
:1011C0007DF81A2000F06EF81248016E41F480217B
:1011D0000166006E05A900F480200690684600F0C4
:1011E0004BFD00F07FFD0C490C4AB0FBF1F10C48BF
:1011F000491E026041603D220021C0E90321816057
:1012000001F03BF810B1012007B000BD044801F027
:1012100051F8F9E70010024040420F000048014039
:10122000440500201E4808B5016E41F00101016629
:10123000016E01F001010091816D41F080518165E5
:10124000806D00F080500090032000F057F80022DD
:1012500011466FF00B0000F031F8002211466FF0DC
:101260000A0000F02BF8002211466FF0090000F090
:1012700025F800221146501F00F020F800221146E8
:10128000101F00F01BF800220F21901E00F016F82E
:1012900000220F21BDE80840501E00F00FB80000EA
:1012A0000010024000F01F0201219140400980001F
:1012B00000F1E020C0F8001170470000F0B40E4BC0
:1012C0001B680C46C3F30223C3F10705042D00D9A4
:1012D0000425191D072901D2002300E0DB1E012689
:1012E00006FA05F1491E214099409E40761E16409F
:1012F0003143F0BC01F038BA0CED00E0064900F0D3
:10130000070208684FF6FF03184040EA0220034A2C
:1013100010430860704700000CED00E00000FA0583
:101320001549B0F5007F0868C0F3412009D00228B4
:1013300005D0086820F4C06040F480600860002098
:1013400070470128FBD0086820F4C06040F40070AA
:1013500008600A480A4A0068B0FBF2F032225043A3
:1013600000E0401E10B14A695205FAD448694005B0
:10137000E5D50320704700000070004018000020F1
:1013800040420F000248006800F4C060704700004F
:1013900000700040F8B504460025FFF7F1FE064650
:1013A00094F83900800736D5002084F8380020688A
:1013B000016849070BD5016821F004010160606BE9
:1013C000FFF7D0FD18B1E06B40F00400E063206847
:1013D000016841F002010160206C00903346012257
:1013E0000221204601F0B2FB050014D12168022041
:1013F000C860206C0090334600222021204601F076
:10140000A5FB050007D12068416921F040614161D9
:10141000012084F839002846F8BD00002DE9F84F76
:101420001E4615468A460446FFF7AAFE814694F8F2
:10143000380001280ED0012784F8387094F839005C
:101440004FF00008012807D05FF0020084F83880D0
:10145000BDE8F88F0220FBE7C4F83C80422084F806
:1014600039004B46002220212046009601F06EFBF9
:101470000028EBD121682868886221686868486282
:101480002168A868C86220682969026822F44002BD
:1014900042F4800211430160E968CAF828104FF055
:1014A00000625146204601F097F94B46012208217F
:1014B0002046009601F04AFB0028C7D12268082187
:1014C000D16084F83970C1E72DE9F84F17468B4693
:1014D0000446FFF755FE824694F8380001280ED0E6
:1014E000012684F8386094F839004FF0000801288C
:1014F00007D0022584F838802846BDE8F88F0220FE
:10150000FBE7C4F83C804FF0020984F83990534659
:10151000002220212046009701F018FB0500E9D1A8
:1015200000225946204601F057F9DBF8240058B94B
:101530005346012202212046009701F007FB0500D7
:10154000D8D12168C1F80C9084F83960D2E710B581
:10155000040015D094F83800012813D0012084F835
:1015600038002068016821F001010160204600F088
:1015700063F80020E06384F8390084F8380010BD77
:10158000012010BD022010BDF8B50446FFF7F8FD9C
:1015900006465CB194F83800012809D0012784F888
:1015A000387094F83900002520B10BE00120F8BD17
:1015B0000220F8BD84F83850204600F03EF841F291
:1015C0008830206420680168A2686FF0FF0321F46E
:1015D000706103EB022211430160206C00903346DE
:1015E00000222021204601F0B1FAE8B921680A68FA
:1015F0000F4B1A40237942EA0362E3681A430A60F8
:10160000D4E905121143226853680A4E3340268AF2
:1016100043EA06431943516021680A6842F0010217
:101620000A60E56384F8397084F83850F8BD00002A
:10163000EFFFFF00FEF8E0FF704770472DE9F84F1D
:1016400015460F460446FFF79BFD824620688169D8
:1016500094F8382000F12009012A0DD0012684F8E1
:10166000386094F839204FF00008012A06D0022093
:1016700084F83880BDE8F88F0220FBE7C4F83C808E
:10168000BFB3222284F839200269521C2263026906
:10169000521CE262A762426922F0406242F080621C
:1016A0004261206881610EE00621204601F04EFA79
:1016B000E0B999F80000A16A0870A06A401CA06215
:1016C000206B401E2063206B53464FF001020095B3
:1016D0000028E9D14FF00201204601F037FA28B97D
:1016E00021680220C8602046FFF754FE84F8396064
:1016F000BEE7FFE7E06B40F00800E0630120B7E7DA
:101700002DE9F84F15460F460446FFF739FD82468E
:10171000206894F8381000F1200901290ED0012624
:1017200084F8386094F839104FF00008012907D088
:101730005FF0020084F83880BDE8F88F0220FBE7F4
:10174000C4F83C809FB3122184F839100169491C08
:1017500061620169491C2162E761416921F04061D0
:1017600041610EE00421204601F0F0F9E0B9E069A2
:10177000017889F80010E069401CE061606A401E51
:101780006062606A53464FF0010200950028E9D17B
:101790004FF00201204601F0D9F928B92168022052
:1017A000C8602046FFF7F6FD84F83960C2E7FFE71E
:1017B000E06B40F00800E0630120BBE72DE9F84F43
:1017C000044600270088E54D3E46010504F1200B44
:1017D0001DD5606E78B1B0F5800F11D0B0F5000F57
:1017E00004D0B0F5400F22D001270FE0E86840F4A4
:1017F0008030E8601BE00021201D01F0FFF903E0CC
:101800000021584601F090FA070010D03E4620888B
:10181000C00426D5A06EC0B1B0F1807F1AD0B0F15F
:10182000007F0DD0B0F1407F19D0012718E0D5F826
:101830008800616E20F440000843C5F88800E6E7A0
:10184000E86840F48030E86009E00021201D01F0E4
:10185000D5F903E00021584601F066FA0746F7B1D2
:101860003E46206880033AD5A86D4FF00008C000BE
:1018700009D4A86D40F08050A865A86D4FF001080C
:1018800000F080500090DFF8D8A2DAF8001041F4A0
:101890008071CAF80010FFF773FC814610E0D5F89C
:1018A0008800A16E20F040700843C5F88800D8E792
:1018B000FFF766FCA0EB0900022801D9032705E029
:1018C000DAF80000C005F3D5002F7CD04FEA0706F8
:1018D000B8F1000F03D0A86D20F08050A8652078E3
:1018E000C00707D0D5F88800A16B20F0030008439B
:1018F000C5F888002078800707D5D5F88800E16B07
:1019000020F00C000843C5F888002078400707D570
:10191000D5F88800216C20F030000843C5F8880015
:101920002078000707D5D5F88800616C20F0C0004A
:101930000843C5F888002078C00607D5D5F8880088
:10194000A16C20F440700843C5F888002078800618
:1019500007D5D5F88800E16C20F440600843C5F84D
:1019600088002088800507D5D5F88800E16D20F42F
:1019700040200843C5F888002088400507D5D5F8E1
:101980008800216E20F440100843C5F888002078B4
:10199000400607D5D5F88800216D20F44050084353
:1019A000C5F888002078000607D5D5F88800616D55
:1019B00020F440400843C5F888002088C00509D5B8
:1019C000D5F8880000E01CE0A16D20F44030084309
:1019D000C5F8880020884FF0006780044FF08068C9
:1019E0004FD5D5F88800E16E20F040600843C5F877
:1019F0008800E06EB8423CD1E86840F48010E860AE
:101A00003FE0D5F8900010F4407015D0D4F8841061
:101A1000814211D0D5F89000D5F8901020F4407094
:101A200041F48031C5F89010D5F8901021F4803140
:101A3000C5F89010C5F89000C00710D0FFF7A0FBC4
:101A4000074641F2883906E0FFF79AFBC11B49457A
:101A500001D903263CE7D5F890008007F4D5D5F8E6
:101A60009000D4F8841020F440700843C5F890002A
:101A70002EE7404505D10121201D01F0BFF800B13E
:101A800006462068000317D5D5F88800216F20F09E
:101A900040600843C5F88800206FB84204D1E86868
:101AA00040F48010E86007E0404505D10121201D89
:101AB00001F0A4F800B106462068400317D5D5F818
:101AC0008800616F20F040600843C5F88800606FAF
:101AD000B84204D1E86840F48010E86007E040456F
:101AE00005D10121201D01F089F800B106462088AA
:101AF00040041AD5D5F88800A16F20F04050084363
:101B0000C5F88800A06FB0F1805F03D0B0F1005F2E
:101B100005D00AE00221201D01F070F803E0022147
:101B2000584601F001F900B106462088000407D5A7
:101B3000D5F88800E16F20F080400843C5F88800A0
:101B40002068C00307D555F8880FD4F8801020F01E
:101B50000040084328603046BDE8F88F001002407E
:101B6000007000402DE9F0470F46050058D03E4E6A
:101B7000306800F00700B84209D2306820F0070052
:101B800038433060306800F00700B84248D1287808
:101B9000364CC0072CD06868032811D0022812D018
:101BA000216898B1490500293ADAA16821F00301BA
:101BB0000143A160FFF7E4FA804641F2883910E062
:101BC00021688901EFE721688903ECE78907EAE7E3
:101BD000FFF7D6FAA0EB0801494502D90320BDE87A
:101BE000F087A068696800F00C00B0EB810FEFD1BE
:101BF0002878800705D5A068A96820F0F000084380
:101C0000A060306800F00700B8420BD9306820F0BF
:101C1000070038433060306800F00700B84201D058
:101C20000120DCE72878400705D5A068E96820F4A2
:101C3000E0600843A0602878000706D5A0682969FD
:101C400020F4605040EAC100A06000F05BF8A16899
:101C5000074AC1F30311515CC840064908600020DF
:101C6000FFF7A8FA0020BAE7002002400010024067
:101C70007C480008180000200F2202600C4A93687C
:101C800003F003034360936803F0F00383609368F9
:101C900003F4E063C36092684FF4E06303EAD202A6
:101CA00002610448006800F0070008607047000007
:101CB0000010024000200240014800687047000008
:101CC000180000200448054900688968044AC1F3E7
:101CD0000221515CC84070471800002000100240EB
:101CE000BC4800080448054900688968044AC1F3F3
:101CF000C221515CC840704718000020001002400B
:101D0000BC48000830B52D49002318468A682C4C81
:101D100012F00C0F4FEA640514D08A68C2F38102F6
:101D2000032A04D1CA6802F00302012A0AD08A6891
:101D3000C2F38102012A19D08A68C2F38102022A01
:101D400016D016E00A68120704D4D1F89420C2F322
:101D5000032202E00A68C2F303121A4B53F822303E
:101D60008A6812F00C0F04D1184602E0204600E009
:101D700028468A68C2F38102032A1DD1C868CA684E
:101D800000F00300C2F30212521C022804D0032800
:101D900005D0B3FBF2F004E0B4FBF2F001E0B5FBD8
:101DA000F2F0CA68C968C2F306225043C1F3416128
:101DB000491C4900B0FBF1F030BD000000100240AA
:101DC0000024F4008C4800082DE9F84304007DD07D
:101DD0002078FF4DC0065DD5A86810F00C0F0AD022
:101DE000A0690028286873D040F001002860FFF740
:101DF000C7F9064655E02868800702D5A069002883
:101E0000E5D0216A2868000703D5286800F0F000B3
:101E100004E0D5F89400F02202EA1010814216D9AD
:101E2000084601F005F8002850D1286840F0080065
:101E300028602868216A20F0F0000843286068685C
:101E4000E16920F47F4040EA0120686015E02868DD
:101E500040F0080028602868216A20F0F00008435C
:101E600028606868E16920F47F4040EA01206860EA
:101E7000206A00F0DDFF0028D6D1FFF743FFA968F4
:101E8000D44AC1F30311515CC840D3490860002013
:101E9000FFF790F92CE000BFFFF772F9801B0228D2
:101EA0007ED828688007F7D5286840F008002860A9
:101EB0002868216A20F0F000084328606868E1691A
:101EC00020F47F4040EA0120686011E0B2E0FFE7C3
:101ED00020F001002860FFF753F9064605E000BF37
:101EE000FFF74EF9801B0228DAD828688007F7D45C
:101EF0002078C00748D0A868C0F3810002281DD010
:101F0000A868C0F38100032803D1E868C0438007B4
:101F100014D06068B0F5803F17D0B0F5A02F2868C6
:101F200017D020F480302860286820F480202860B2
:101F30006068E0B1FFF724F9064614E028688003E2
:101F400022D56068002875D01EE0286840F48030F3
:101F5000EDE740F480202860F7E700BFFFF710F9B5
:101F6000801B64289CD828688003F7D50CE0FFF715
:101F700007F9064605E000BFFFF702F9801B642859
:101F80008ED828688003F7D42078800742D5A868C7
:101F9000C0F38100012816D0A868C0F3810000E0DA
:101FA000A9E0032804D1E86800F0030002280AD061
:101FB000E068002828681DD040F480702860FFF792
:101FC000DFF806460BE0286840050BD5E0680028DE
:101FD000B9D007E0FFF7D4F8801B022884D828681E
:101FE0004005F7D56868217C20F0F85040EA016090
:101FF00068600FE020F480702860FFF7C1F80646A3
:1020000005E000BFFFF7BCF8801B022873D82868E2
:102010004005F7D42078000729D560690028D5F855
:10202000940013D040F00100C5F89400FFF7A8F821
:10203000064606E0FBE000BFFFF7A2F8801B02287F
:1020400059D8D5F894008007F6D510E020F00100AB
:10205000C5F89400FFF794F8064604E0FFF790F8FF
:10206000801B022847D8D5F894008007F6D4207842
:10207000400763D5A86D0026C00008D4A86D40F0C5
:102080008050A865A86D012600F08050009053484C
:102090000168C90511D40168804641F4807101606E
:1020A000FFF76EF8074604E0FFF76AF8C01B022846
:1020B00021D8D8F80000C005F6D5A068012815D0B1
:1020C0000528D5F8900017D020F00100C5F8900041
:1020D000D5F8900020F00400C5F89000A06841F207
:1020E0008838C8B1FFF74CF8074610E0D5F89000E3
:1020F00040F00100F0E777E040F00400C5F8900000
:10210000F4E700BFFFF73CF8C11B41456CD8D5F898
:1021100090008007F6D50CE0FFF732F8074604E0A0
:10212000FFF72EF8C11B414579D8D5F890008007FC
:10213000F6D41EB1A86D20F08050A865A06AE0B367
:10214000A968C1F38101032972D00228286820F010
:102150008070286011D02868000106D428688000AB
:1021600003D4E86820F00300E860E8681C490840F0
:10217000E860FFF705F8044654E0FFF701F806466B
:1021800005E000BFFEF7FCFF801B022847D8286847
:102190008001F7D4206BE16A000110380843616BBD
:1021A000A26B0902120941EA42410843A18F0D4A7C
:1021B000490802EB4151084300E036E094F8401032
:1021C0004908120102EB41610843E86028680CE00D
:1021D000001002407C4800081800002000700040F9
:1021E000FFFFEEFE0000E0FF19E040F08070286085
:1021F000E86840F08070E860FEF7C2FF044604E043
:10220000FEF7BEFF001B022809D828688001F7D519
:102210000BE000BFFEF7B4FF001B022802D9032029
:10222000BDE8F88328688001F4D40020F8E7FFE7D0
:102230000120F5E74FF0E0210428086903D020F0E1
:1022400004000861704740F00400FAE710B5401E32
:10225000B0F1807F01D3012010BD4FF0E024606118
:102260000F21601700F080FA0020A0610720206194
:10227000002010BD70477047704710B5040003D0B0
:1022800094F83D0010B107E0012010BD002084F853
:102290003C00204600F00CF8022084F83D00211D8F
:1022A000206800F007FF012084F83D00002010BDE9
:1022B000704700000168CA6842F00102CA60006805
:1022C000826807490A40062A08D082680A40B2F5A7
:1022D000803F03D0016841F0010101600020704798
:1022E00007000100704770B50446006801694FF0AF
:1022F0000005C943890715D4C168C943890711D4AA
:10230000E91E01610120207720688069800720464E
:1023100002D0FFF7E7FF04E000F0A7F8204600F046
:10232000A5F8257720680169C943490717D4C16812
:10233000C943490713D46FF00401016102202077DB
:102340002068806910F4407F204602D0FFF7CAFF62
:1023500004E000F08AF8204600F088F8257720682D
:102360000169C943090716D4C168C943090712D4D2
:102370006FF008010161042020772068C0698007A0
:10238000204602D0FFF7AEFF04E000F06EF82046D2
:1023900000F06CF8257720680169C943C90617D495
:1023A000C168C943C90613D46FF010010161082048
:1023B00020772068C06910F4407F204602D0FFF7E4
:1023C00091FF04E000F051F8204600F04FF8257727
:1023D00020680169C943C90708D1C168C943C90751
:1023E00004D1891E0161204600F042F8206801698D
:1023F000C943090609D4C168C943090605D46FF069
:10240000800101612046FFF736FF20680169C9435A
:10241000C90509D4C168C943090605D46FF48071A0
:1024200001612046FFF726FF20680169C94349067C
:1024300009D4C168C943490605D46FF04001016160
:10244000204600F023F820680169C94389060BD4AF
:10245000C168C943890607D46FF020010161204695
:10246000BDE87040FFF708BF70BD704770470000BF
:10247000044A0121116000680349884201D1FEF736
:1024800085BE70470000002000480140704710B52D
:10249000040003D094F8710010B107E0012010BDD2
:1024A000002084F87000204600F026F8242084F8EC
:1024B00071002068016821F001010160204600F0F0
:1024C000EBFE0128EBD0606A10B1204600F052FE0E
:1024D0002068416821F4904141602068816821F0C2
:1024E0002A0181602068016841F0010101602046F5
:1024F000BDE8104000F0A2BE00B500680E4987B0EC
:10250000884216D10D48016E41F480410166006E8B
:10251000694600F480400590C020009002200190A0
:102520000020029003200390072004900448FEF747
:1025300045FD07B000BD000000380140001002401A
:10254000000400482DE9F843044690F871001F4646
:1025500016460D4620284BD1C5B1BEB194F8700087
:10256000012845D0012084F870004FF00008C4F81D
:102570007480212084F87100FEF702FEA4F85060F8
:102580008146A4F852604FF4805615E00120BDE862
:10259000F8838021204600F0CFFFD8B9A068B04270
:1025A00001D12069C0B115F8010B21680885B4F884
:1025B0005200401EA4F85200B4F852004B464FF0AF
:1025C000000200970028E4D14FF04001204600F0BF
:1025D000B3FF30B10320DAE735F8020BC0F308008F
:1025E000E3E7202084F8710084F870800020CEE7B3
:1025F0000220CCE7FEE7000010B511498AB00F4871
:1026000008600846FEF7D7FA00B1FEE70024009400
:102610000194029403942246694609480494FEF703
:102620003DFA00B1FEE71022694605480394FEF723
:1026300035FA002800D0FEE70AB010BD0074004053
:10264000800000202DE9F047344833490024C0E9D8
:102650000014012505724472CE058027C661C0E9C9
:102660000875FEF7D3FB00B1FEE72C482A49543029
:102670008031C0E9001405724472C661C0E9087572
:10268000FEF7C4FB00B1FEE724482349A830E03937
:1026900002C04E0600F8045B4FF0200940C08915C7
:1026A000E0E802944FF0040AE0E802411C4FE0E841
:1026B000025A4FF00D0880E8B0011848A830FEF724
:1026C000D9FA00B1FEE715481349E030C03902C01D
:1026D00000F8045B40C0E0E8039440F8044C10C0EC
:1026E000E0E8024A80E8B0010C48E030FEF7C2FAA8
:1026F00000B1FEE701220B490848FEF763FB00B179
:10270000FEE70648012208495430FEF75BFB00282B
:1027100000D0FEE7BDE8F087006101409400002092
:1027200080FBFFFF02000100040002000C4810B50E
:102730000A4901604FF4E1314160002181600C22BF
:10274000C160C0E904128161C16101624162FFF7A9
:102750009EFE002800D0FEE710BD000000380140BA
:10276000AC010020FEE770470907090E002806DAD1
:1027700000F00F0000F1E02080F8141D704700F118
:10278000E02080F80014704700B595B04FF48070D9
:1027900006900520009000204FF08072CDE90802DD
:1027A00005900122CDE90E0207900B900C900D9040
:1027B000CDE911201020109080040B4613900EAA32
:1027C00069460448FEF72AFE002800D0012015B013
:1027D00000BD0000A4050020F0B54B6A4FF0406535
:1027E0002BB1AA4203D08B6A04685B1E23618C69FB
:1027F0000B6A002C57D05BB304688B68E361CC692B
:10280000B4B1D1E90B3633434F6A4E6B3E43334389
:102810008E8A43EA86430E6933430E6A3343CE6899
:10282000334323438C6924E0006849688161F0BD2B
:10283000D1E90B3423434D6A4C6B2C4323438C8AE0
:1028400043EA84430C6923430C6A23438C6923E0E5
:10285000CE69BEB1D1E90B373B43D1F824C04F6BF1
:1028600047EA0C073B438F8A43EA8743CF683B43E1
:10287000334323430C682343046813436361AA4230
:10288000D2D1F0BDD1E90B352B434E6A4D6B3543A8
:102890002B438D8A43EA85430968234300680B4331
:1028A00013434361F0BD3BB304688B68E361CC69BB
:1028B00094B1D1E90B3633434F6A4E6B3E433343F9
:1028C0008E8A43EA86430E6933430E6A3343CE68E9
:1028D000334323438C69CEE7D1E90B3423434D6A5C
:1028E0004C6B2C4323438C8A43EA84430C69234377
:1028F0000C6A89692343D1E7CC6964B1D1E90B360D
:1029000033434F6A4E6B3E4333438E8A43EA8643DA
:10291000CE683343AFE74B6A002BC3D0D1E90B45F8
:102920002C434D6B898A1D432C43006844EA814146
:1029300011434161F0BD00002DE9F04190B04FF42A
:10294000807006900520009000200C464FF08071AA
:1029500001250590CDE90801CDE90A5007900C90BA
:1029600041F288360D90324669463148FEF7ACFD9B
:1029700000285BD1B04632460EA92D48FEF75EFE18
:10298000002853D1022715260A974246694628484F
:102990000096FEF799FDE8BB42460DF13901244847
:1029A000FEF74CFEB0BB224800F0F4F890BB9DF857
:1029B0003A00012C0FD020F0020000BF8DF83A0041
:1029C000009503200A904546424669461848FEF79E
:1029D0007BFDF8B902E040F00200EFE72A460EA9BD
:1029E0001348FEF78DFEA8B929461148FFF7CCFE23
:1029F00080B90A972A4669460D480096FEF764FD9D
:102A000040B92A460EA90A48FEF718FE10B99DF8EB
:102A1000390000E00AE0810703D4012C06D08007CA
:102A200000D51CB1002010B0BDE8F0810120FAE70C
:102A3000A4050020F0B58FB04FF480700690002000
:102A400005260D4600964FF0807101240590CDE9D2
:102A50000801CDE90A4007900C9041F288370D90AB
:102A60003A4669462348FEF72FFDE0BB3A460EA9D9
:102A70002048FEF7E3FDB0BB1E4800F08BF890BB8A
:102A80009DF83800012D0CD020F040008DF8380062
:102A900000943C463A4669461648FEF715FD10BBC1
:102AA00002E040F04000F1E722460EA91148FEF78F
:102AB00027FEC0B921460F48FFF766FE98B92246A7
:102AC00069460C480096FEF7FFFC60B922460EA945
:102AD0000848FEF7B3FD30B99DF83800400603D42E
:102AE000012D05D001E003E015B100200FB0F0BDCD
:102AF0000120FBE7A405002010B58EB04FF48070D4
:102B0000069066200090002007900890099005909C
:102B10000B900C9041F288340D90224669460A4889
:102B2000FEF7D2FC68B99920009022466946064813
:102B3000FEF7CAFC28B921460348FFF725FE002806
:102B400000D001200EB010BDA40500202DE9F041F9
:102B5000984616460F460446069D08E0681C06D0B7
:102B6000FEF70EFBA0EB0800A8420AD84DB1206882
:102B70008068384000D00120B042EFD10020BDE88D
:102B8000F081042084F83900E06B40F00100E0633C
:102B90000120F4E730B595B000244FF48070069022
:102BA000062005940794089441F288350090099412
:102BB0000B940C942A4669460D940F48FEF784FC4A
:102BC000B0B902200E900F900120CDE91104102021
:102BD000109080041390052000904FF080700990B1
:102BE0002B460EAA69460448FEF718FC002800D0C0
:102BF000012015B030BD0000A40500202DE9F041F2
:102C0000444C05468846E0680026810728680DD0B8
:102C1000E16801F00301814216D1A8B1E06869685A
:102C2000C0F30210401C88420ED120E0012804D0DD
:102C3000022805D0032807D108E02168890701E0B0
:102C400021684905002907DB01265FE02168890327
:102C500002D421684903F5E7E1686A686FF00F0361
:102C600021F0730103EB021211430143E16020687C
:102C700020F080602060FEF783FA074605E000BF81
:102C8000FEF77EFAC01B022837D820680001F7D46F
:102C9000B8F1000F18D0B8F1010F1ED0287D4FF009
:102CA0007E41400801EB4060A96840EA01202169AB
:102CB000194A114008432061206840F0806020607C
:102CC000FEF75EFA07461AE0A868E96800020909FB
:102CD00040EA41402169114AEBE7288A104940083F
:102CE00001EB4050A96840EA012021690D4AE0E764
:102CF000FEF746FAC01B022801D9032606E0206829
:102D00000001F5D52069A969084320613046BDE876
:102D1000F081000000100240FF80FFF9FF80FDFFFE
:102D20000000E0FFFF809FFF2DE9F0413D4C06468B
:102D30008846E0680025810730680DD0E16801F021
:102D40000301814216D1A8B1E0687168C0F3021096
:102D5000401C88420ED120E0012804D0022805D072
:102D6000032807D108E02168890701E021684905A7
:102D7000002907DB012551E02168890302D421687D
:102D80004903F5E7E16872686FF00F0321F0730102
:102D900003EB021211430143E160206820F08050F0
:102DA0002060FEF7EDF9074605E000BFFEF7E8F901
:102DB000C01B022829D820688000F7D4B8F1000F82
:102DC00015D0307C4FF07E41400801EB4060B16887
:102DD00040EA01206169144A11400843606120689B
:102DE00040F080502060FEF7CBF907460FE0B06856
:102DF000F1680002090940EA414061690B4AEBE7CA
:102E0000FEF7BEF9C01B022801D9032506E02068A1
:102E10008000F5D560697169084360612846BDE8A6
:102E2000F081000000100240FF80FFF9FF80FDFFED
:102E3000F8B51C4D06460024A86DC00002D5FEF76B
:102E4000A1FA0DE0A86D40F08050A865A86D00F0D3
:102E500080500090FEF796FAA96D21F08051A96587
:102E6000B0F5007F04D0802E07D94FF003040AE0AC
:102E7000802E08D9A02E01D804E001D1022402E05E
:102E8000702E00D101240848016821F00701214378
:102E90000160006800F00700A04201D00120F8BDE9
:102EA0000020F8BD00100240002002400EB5DFF8FF
:102EB000D0800024DFF8C49008F5C8702646642747
:102EC0004FF4C87ACDF80800D9F800100029FBD0DB
:102ED00094FBF7F0002107FB1045C9F80010B6B1CC
:102EE000BDBB28A000F05CFB94FBF7F007FB104192
:102EF0004FF4C87041438B4652462148FDF718FDF8
:102F000052460BF5FA310298FDF712FD21E09FEDD4
:102F1000210A08EB8500632D80ED000A9FED1E0A53
:102F200080ED640A15D11DA000F03AFB632094FBEC
:102F3000F0F100FB11414FF4C87041438B465246FB
:102F40000F48FDF729FD52460BF5FA310298FDF7BF
:102F500023FD58F82500FDF7D4F941EC100BCDE91D
:102F6000004653EC102B11A000F01AFB641CB4F5C2
:102F7000FA4FA9D101260024A6E700000000002096
:102F80002402002072656164206275666665720ABB
:102F900000000000CDCCCC3DCDCC4C3E77726974A6
:102FA00065206275666665720A000000256609255F
:102FB000640925640A00000000F0BDBFF0B5B9B097
:102FC0001020012500242290CDE9285402266020FB
:102FD000CDE92C652A9028200727CDE92E50CDE990
:102FE0003076329622A8FEF7EFFE00B1FEE70F2002
:102FF00033900320CDE934043694042133A8379468
:10300000FEF7B0FD00B1FEE715481994CDE90005C3
:1030100020942020CDE90250C0020E94CDE9066034
:10302000CDE904766846FEF7C9FB00B1FEE74FF430
:103030000070FEF775F900B1FEE7FEF73DFE4FF4B4
:103040007A71B0FBF1F0FFF701F90420FFF7F2F815
:1030500000220F21501EFEF731F939B0F0BD0000FB
:10306000010801000D48016841F4700101600C483D
:10307000016841F001010160002181600268094B93
:103080001A4002608214C260026822F48022026048
:1030900081610249C00380390860704788ED00E013
:1030A00000100240FFFFF6EA0148FFF71CB90000DC
:1030B000440500202DE9F0470268264B264D274E97
:1030C000274F284C4FF0804A984209D0504507D0EE
:1030D000A84205D0B04203D0B84201D0A04204D1EA
:1030E00022F0700C4A6842EA0C02DFF87CC0DFF87C
:1030F0007C80DFF87C9098420FD050450DD0A842DC
:103100000BD0B04209D0B84207D0A04205D06045EC
:1031100003D0404501D0484503D122F44075CA6828
:103120002A434D6922F080022A4302608A68C26203
:103130000A688262984207D0A04205D0604503D059
:10314000404501D0484501D1096901630121416130
:10315000BDE8F087002C014000040040000800405A
:10316000000C004000340140004001400044014098
:103170000048014090F82410C90706D001684A6849
:10318000836A22F400321A434A6090F824108907B7
:1031900006D501684A68C36A22F480321A434A603D
:1031A00090F82410490706D501684A68036B22F499
:1031B00080221A434A6090F82410090706D5016856
:1031C0004A68436B22F400421A434A6090F8241084
:1031D000C90606D501688A68836B22F480521A43B7
:1031E0008A6090F82410890606D501688A68C36B46
:1031F00022F400521A438A6090F82410490611D52F
:1032000001684A68036C22F480121A434A60016C18
:10321000B1F5801F06D101684A68436C22F4C002F0
:103220001A434A6090F82410090606D501684A68D6
:10323000806C22F4002202434A607047F8B50026F1
:1032400004464667FDF79CFF0546206800686FF05E
:103250007E47000708D52B4600224FF40011204678
:10326000009700F069F960B92068006840070AD546
:103270002B4600224FF480012046009700F05CF9B5
:1032800008B10320F8BD202084F8710084F8720092
:1032900084F870600020F8BD2DE9F0410446016813
:1032A00080682369E6691843636910250027334362
:1032B0001843954A0B68954E334003430B602068D2
:1032C0004168E36821F44051194341602168A069D5
:1032D000914201D0236A18438B6823F4306303437F
:1032E0008B608B4B21688B4899420DD1D0F88800B8
:1032F00010F0030006D001285AD0022856D0032827
:1033000059D157E0012556E0834B99420BD1D0F8B3
:10331000880010F00C0047D0042849D0082845D078
:103320000C2848D146E07D4B99420BD1D0F888005B
:1033300010F0300038D010283AD0202836D030286D
:1033400039D137E0764B99420BD1D0F8880010F094
:10335000C00029D040282BD0802827D0C0282AD1CF
:1033600028E0704B99420ED1D0F8880010F44070DC
:103370001AD0B0F5807F1BD0B0F5007F16D0B0F525
:10338000407F18D116E0914215D1D0F8880010F492
:10339000406009D0B0F5806F0AD0B0F5006F05D05D
:1033A000B0F5406F07D105E0002504E0022502E0FA
:1033B000042500E008255C4B00264FF400409142B4
:1033C0003DD135B1022D07D0042D07D0082D10D1E5
:1033D00007E0FEF777FC03E0184602E0FEF792FCF8
:1033E000A8B3626802EB4201814202D8B0EB023F0F
:1033F00001D9012775E0DFF834815DB1022D0CD0D1
:10340000042D13D0082DF4D150082905401846F199
:10341000000105E0FEF756FC0AE050084449F5E7D4
:103420000023FCF72BFFA0F5407156E0FEF76AFC85
:103430006268010E0302500818187141F0E7E16953
:103440004FF6EF7881422FD1092DD2D200E048E02B
:10345000DFE805F006092005230505052600C8E775
:10346000FEF730FC01E0FEF73DFC4100D4F804001B
:1034700001EB5001B1FBF0F080B2A0F11001414529
:10348000B7D84FF6F0710140C0F342000143206805
:10349000C16026E027496068EAE7FEF733FCE4E70D
:1034A0004FF480316068E3E7092DA2D2DFE805F030
:1034B00006091E052205050525009AE7FEF702FC10
:1034C00001E0FEF70FFC0146606801EB500100BF10
:1034D000B1FBF0F080B2A0F11001414589D821681C
:1034E000C860266638466666BDE8F081606803EB12
:1034F0005001EDE7FEF706FCE5E7616800EB5100DF
:10350000B0FBF1F0E6E7000000800040F369FFEF58
:1035100000380140001002400044004000480040D4
:10352000004C0040005000400024F400FFFC0F005D
:10353000000024F40048E8012DE9F04198461746C0
:103540000E460446069D1DE0681C1BD02DB1FDF7FC
:1035500017FEA0EB0800A84214D92068016821F4E6
:10356000D07101602068816821F001018160202014
:1035700084F8710084F87200002084F87000032041
:10358000BDE8F0812068C06936EA000004D0002060
:10359000B842D9D00020F3E70120F9E7FEE70000A8
:1035A0000FB4054B10B503A9044A029800F0CAF8FD
:1035B00010BC5DF814FB0000753E00087C00002084
:1035C00002E008C8121F08C1002AFAD170477047EC
:1035D000002001E001C1121F002AFBD1704700004A
:1035E0002DE9FF5FDDE90220010DDDF838B002436F
:1035F00018D044F61050A1F2FF3141430D140F983A
:10360000012820D0A5EB0B00401C5FEA000A4FF018
:103610000004474EDFF81C91A046504616D5CAF16B
:10362000000728E00F98012443A2012808D00021B8
:1036300000980F9BC0E90021C0E90243BDE8FF9F4D
:103640006FEA0B01F4E7CBF10000DEE7074612E07A
:10365000F80707D02246334640464946FCF740FF6C
:10366000804689462246334610461946FCF738FF05
:1036700004460E467F10002FEAD1DDE90201BAF1BF
:10368000000F42464B4602DAFCF72AFF01E0FCF746
:1036900099FF04460E460022284BFDF71BF803D87D
:1036A0004FF0FF30014607E00022254B204631460F
:1036B000FCF76FFEFCF7F5FF102409E0002C0ADB95
:1036C0000A220023FCF7DAFD019B30321A55641EF2
:1036D00050EA0102F2D1641C019AC4F111031444AE
:1036E0000F9A012A03D0012208430DD10AE00843B2
:1036F00004D000204FF0110B0F9080E7A3EB0B05D7
:103700006D1E0DE05B4504DD4FF0000205F1010583
:1037100004E003DA4FF00002A5F10105002AECD025
:1037200000980F99C0E90231C0E9004586E7000022
:10373000000024400000F03F300000000000F04393
:103740000000E03F2DE9FF4F95B09B4689460646B5
:1037500000250FE2252877D100242746F84A0121C9
:10376000059400E0044316F8013F203B01FA03F002
:103770001042F7D130782A2811D06FF02F0330781B
:10378000A0F13002092A16D8059A44F0020402EB8F
:10379000820203EB42021044761C0590EFE759F8D1
:1037A000042B0592002A03DA504244F40054059099
:1037B00044F00204761C30782E2816D116F8010F3A
:1037C00044F004042A280DD06FF02F023078A0F1C5
:1037D0003003092B09D807EB870302EB4303C71813
:1037E000761CF3E759F8047B761C30786C280FD0F0
:1037F00006DC4C2817D068280DD06A2814D104E0C4
:10380000742810D07A280FD10DE044F400140AE097
:1038100044F4801401E044F440147278824202D1EE
:1038200004F58014761C761C307866280BD013DCE7
:10383000582877D009DC002875D04528F6D04628CE
:10384000F4D047281AD19DE118E0632835D06428C8
:1038500079D0652812D195E1702873D008DC6728EB
:10386000F1D069286FD06E280DD06F2806D1B5E051
:1038700073282CD0752875D0782874D05A4617999B
:1038800090476D1C75E1C4F30250022809D003284B
:103890000DD0D9F8001004280DD00D6009F10409ED
:1038A00067E1D9F80010EA17C1E90052F6E7D9F844
:1038B00000100D80F2E70D70F0E719F8041B8DF889
:1038C000001000208DF80100EA46012003E059F8BD
:1038D00004AB4FF0FF3061074FF0000102D40DE060
:1038E00008F101018846B9420FDA8045F8DB1AF881
:1038F00008100029F4D108E008F10101884681424E
:10390000FADB1AF808100029F6D105985B46A0EBFF
:10391000080721463846179A00F094FA284400EB2D
:10392000080507E04DE029E10DE01AF8010B5A46C1
:1039300017999047B8F10108F7D25B4621463846FF
:10394000179A13E142E00A220092C4F302524FF0A8
:10395000000A022A08D059F804CB032A4FEAEC7176
:103960000AD00DE029E02AE009F1070121F0070261
:10397000F2E802C1914609E00FFA8CFC4FEAEC71C3
:10398000042A03D14FFA8CFC4FEAEC71002907DAC4
:103990000A460021DCF1000C61EB02012D2202E05D
:1039A000220504D52B228DF80420012203E0E20732
:1039B00001D02022F7E7904659E00A2102E01022C8
:1039C0000DE010214FF0000A00910BE010224FF0A3
:1039D000000A44F004040827009203E008224FF094
:1039E000000A0092C4F30252022A05D059F804CB0F
:1039F0000021032A08D009E009F1070121F007029C
:103A0000F2E802C1914605E01FFA8CFC042A01D1BC
:103A10000CF0FF0C4FF00008220728D5702806D0C4
:103A2000009B83F0100353EA0A0305D00EE0402206
:103A30008DF80420012208E05CEA010206D0302261
:103A40008DF804208DF8050002229046009B83F03B
:103A5000080353EA0A030AD15CEA010201D16207B2
:103A600005D530228DF804204FF001087F1E58281C
:103A700004D034A003900EA802900DE036A0F9E720
:103A800053466046009AFCF7F9FB84460398825C33
:103A90000298401E029002705CEA0100F0D1029888
:103AA00006A9081A00F1200A600702D524F4803420
:103AB00000E00127574502DDA7EB0A0000E00020E7
:103AC00000EB0A01009005984144401A0590E0037C
:103AD00006D45B462146179A059800F0B3F90544D1
:103AE000002706E001A85A46C05D179990476D1C53
:103AF0007F1C4745F6DBE0030CD55B462146179A51
:103B0000059800F09FF9054404E030205A461799C3
:103B100090476D1C0099481E00900029F5DC08E0D4
:103B2000029802995A460078491C029117999047C9
:103B30006D1CBAF10001AAF1010AF1DC65E1000097
:103B40000928010030313233343536373839616273
:103B50006364656600000000303132333435363737
:103B600038394142434445460000000000F058F90E
:103B70000544761C307800287FF4ECAD19B0284657
:103B8000BDE8F08F620700D4062709F1070222F092
:103B9000070CFCE80223E14603F000485FEA080C4A
:103BA00002D00FF2702C0DE05FEA045C02D50FF238
:103BB000682C07E05FEAC47C02D00FF2602C01E0C1
:103BC000AFF2700C4FF0FF3823F00043CDF850C037
:103BD00065280CD006DC452809D046281DD047288A
:103BE0003DD13DE0662818D067287ED138E000211D
:103BF000112F01DB112000E0781CCDE9000106A99E
:103C00000EA8FFF7EDFCDDE90F010E9A03910021EC
:103C1000009207F1010A04914DE04FF00040009737
:103C2000CDE9011006A90EA8FFF7DAFCDDE90F02C5
:103C300003920E9B11990022DDF80CA000930492D0
:103C400011B9791C00EB010AB7EB0A0004D4C0F1EA
:103C5000FF3007F1010A0490AAEB0700019044E04D
:103C6000012F00DA01270021112F01DD112000E0D2
:103C70003846CDE9000106A90EA8FFF7B1FCDDE941
:103C80000F010E9A0391002104910092BA46210778
:103C90000CD40399514500DA8A46BAF1010F05DDCB
:103CA000009AAAF10101515C302908D0B84202DA29
:103CB00010F1040F06DA0121CDE9011015E0AAF197
:103CC0000101E9E7002805DC049901440491AAEB0D
:103CD000000102E0411C514500DD8A460499401A6A
:103CE000401C01904FF000400290200704D401983E
:103CF000504501DBCDF8048000208DF84F0002987C
:103D00000DF14F07B0F1004F25D02B200E900298F7
:103D10004FF0020800280CDA404202902D200E904D
:103D200007E00A210298FCF7FFFA3031029007F809
:103D3000011DB8F10001A8F10108F2DC0298002889
:103D4000EFD1791E0E980870307800F0200040F016
:103D5000450007F8020D12A8C01B00F107081498CF
:103D6000007800B1012000EB0A01019801EBE0713D
:103D700005984144401A401E0590E00306D45B4676
:103D80002146179A059800F05DF8054414980078CC
:103D900018B15A46179990476D1CE00324D55B462D
:103DA0002146179A059800F04DF805441CE0049848
:103DB000002807DBDDE90301884203DD0098405C51
:103DC000179901E0179930205A469047049805F159
:103DD0000105401C04900198401E019004D12E2042
:103DE0005A46179990476D1CBAF10001AAF1010AD1
:103DF000DDDC05E017F8010B5A46179990476D1C5A
:103E0000B8F10001A8F10108F4DC5B462146179ADD
:103E10000598ABE62D0000002B00000020000000FC
:103E20002DE9F041044600251E461746880404D4B7
:103E300005E039462020B0476D1C641EF9D52846A0
:103E4000BDE8F0812DE9F041044600251E4690466C
:103E5000C80301D5302700E02027880404D505E0F9
:103E600041463846B0476D1C641EF9D52846BDE86A
:103E7000F081000013B547F2305423460122694611
:103E80000348FEF75FFB0028F7D100981CBD000037
:103E9000AC01002086B0FDF781F9FFF78FF81C48D0
:103EA000C16C41F00101C164C16C01F001010591D7
:103EB000C16C41F01001C164C16C01F010010591A9
:103EC000C16C41F00201C164C06C00F002000590B9
:103ED000FEF72CFCFEF7B6FBFEF78EFBFCF7BCFCF6
:103EE000FCF792FC00210B48FCF79AFE10210948D0
:103EF000FCF796FE142208496846FCF7F0F9002109
:103F0000684600F022F80549486000F00FF8FEE727
:103F100000100240800000206848000800000020D7
:103F200001460020842900D0C81C704710B500F05D
:103F3000A7FA002010BD10B500F0BEFB012803D089
:103F4000BDE8104000F076BB10BD3EB504460D46FE
:103F5000B0F90800FFF7E4FF02A9CDE90001208ACB
:103F60002B4682B2D4E9001000F07AFB012801D080
:103F700000203EBD02983EBD2DE9F041054600F00F
:103F80000DFA2E4CA068401CA06020682C4F10B188
:103F9000606940B32DE02560A068012829D1002682
:103FA00006EB860007EB800000F0DEF9761C072E9A
:103FB000F6D323488C3000F0D7F92148A03000F028
:103FC000D3F91F48B43000F0CFF91D48C83000F0D5
:103FD000CBF91B48DC3000F0C7F919488C3060631E
:103FE0001430A06305E02068E96AC06A884200D8FE
:103FF0002560606A401C6062E96A0120226988408D
:104000001043206101EB810007EB8000291D00F0C7
:10401000B9F900F0E3F9606900280CD02068E96A7A
:10402000C06A884207D207494FF080500860BFF34A
:104030004F8FBFF36F8FBDE8F0810000400000207C
:10404000A011002004ED00E070B5114E114C17E0F6
:1040500000F04AFA3068B8B100F0A0FB00F09EF919
:10406000F068C568281D00F06DF9A068401EA060CA
:104070006068401E606000F0B1F9284600F00CF85E
:1040800060680028E4D170BD00F088FBF8E700000C
:10409000681200204000002010B50446006B00F0BC
:1040A000B1F92046BDE8104000F0ACB90F4840F629
:1040B000B831420705D0C01D0C4A20F00700821A13
:1040C000891A0B4A00230144C2E900030839103A57
:1040D00021F0070111604B600B600B1AC0E900135F
:1040E00093604FF000405360D0607047E8050020B7
:1040F0002C000020074C4FF08056074DFFF7A4FF1F
:1041000020680128FAD92E60BFF34F8FBFF36F8F5D
:10411000F4E70000A011002004ED00E02DE9F047D5
:104120009A46DDE9098481466FF00303206B03EBB7
:1041300082021044089D20F00706700707D0502027
:1041400080F31188BFF34F8FBFF36F8FFEE7231803
:104150000A5C83F834200A5C12B1401C1028F6D3A4
:10416000002784F84370072D00D30625E562C4E9D3
:104170001157201D00F003F904F1180000F0FFF8BA
:104180002461C5F107006462A061E76484F850709F
:1041900052464946304600F0BFF82060B8F1000FA3
:1041A00001D0C8F80040BDE8F087000030B51149E3
:1041B00000E011460A688242FBD34B685C188442D7
:1041C00003D1406818444860084643681C1894426C
:1041D00009D1084C103C2468A24209D052681A4404
:1041E00042600A6812680260814200D0086030BDF7
:1041F0000460F9E72C0000200648416B096829B1EA
:10420000416BC968C9684968816270474FF0FF31E6
:10421000FAE700004000002008484068401C4FF0CA
:10422000500080F3118804D0BFF34F8FBFF36F8F1E
:10423000FEE7BFF34F8FBFF36F8FFEE73400002020
:104240002DE9F0410546002700F04EF9314E306867
:1042500008B9FFF72BFFF06805424BD1C5B308350D
:1042600068070ED005F00700C0F108000544680794
:1042700007D0502080F31188BFF34F8FBFF36F8FAB
:10428000FEE72DB37068854234D8224810300146CD
:104290000C6801E020460C466168A94202D2216800
:1042A0000029F7D131688C4224D007682168016069
:1042B00060680837411B10290FD96019420708D0E0
:1042C000502080F31188BFF34F8FBFF36F8FFEE74D
:1042D00010E041606560FFF769FF61687068401A2F
:1042E0007060B268904200D2B060F0680143002074
:1042F000C4E9000100F052FA780707D0502080F39B
:104300001188BFF34F8FBFF36F8FFEE73846BDE8CC
:10431000F08100001C00002010B5031F4FF08074D6
:104320001C601B1F21F001011960191F044B0B6059
:1043300014390A60091F6FF0020244380A6010BD88
:1043400019420008D0E9013201699A60D0E90123DD
:104350005A604A68824201D182684A600022026142
:104360000868401E0860704700F108014FF0FF32F6
:10437000C0E90112C16001610021016070470021A4
:104380000161704742684A6093688B609368596026
:10439000916008610168491C01607047502080F3FA
:1043A0001188BFF34F8FBFF36F8F0A494868401CD5
:1043B000486001280CD10848006810F0FF0F07D0B2
:1043C000502080F31188BFF34F8FBFF36F8FFEE74C
:1043D000704700003400002004ED00E00849486800
:1043E00028B1401E486001D180F3118870475020E9
:1043F00080F31188BFF34F8FBFF36F8FFEE700008C
:104400003400002070B5002827D0144DA0F1080416
:104410006168E868014207D1502080F31188BFF33A
:104420004F8FBFF36F8FFEE722683AB1502080F3C1
:104430001188BFF34F8FBFF36F8FFEE78143616039
:1044400000F052F860686968084468602046FFF729
:10445000ADFEBDE8704000F0A1B970BD1C000020A9
:1044600006484FF47A710068B0FBF1F14FF0E0209C
:10447000491E4161072101617047000018000020BA
:104480001CB515480024CDE900402346802213A125
:10449000144800F0E5F8012809D0401C1AD150203A
:1044A00080F31188BFF34F8FBFF36F8FFEE750206B
:1044B00080F31188BFF34F8FBFF36F8F06484FF023
:1044C000FF312C38816201214161C460BDE81C408C
:1044D00000F040B81CBD00006C00002049444C4571
:1044E00000000000F54000080248016B491C016310
:1044F00070470000400000201448016B11B10121F9
:10450000C16170470021C1610169B1FA81F1C1F156
:104510001F0101EB81020E4951F822306BB101EB12
:10452000820101F108034A6852684A609A4201D147
:1045300052684A60D16801607047502080F311884A
:10454000BFF34F8FBFF36F8FFEE7000040000020E6
:10455000A01100201CB532480168324A914207D1AF
:10456000502080F31188BFF34F8FBFF36F8FFEE7AA
:1045700000682C49491E884207D1502080F31188D9
:10458000BFF34F8FBFF36F8FFEE727490878019085
:10459000FF20087008788DF800009DF800009DF855
:1045A000002000F0F000904207D0502080F31188E6
:1045B000BFF34F8FBFF36F8FFEE79DF800001B4ADC
:1045C00000F0500010700720906005E09DF800306A
:1045D0005B008DF80030401E9DF800301B06F5D4BE
:1045E000000200F4E0609060019808700C482030F0
:1045F000016841F470010160016841F0704101609F
:10460000FFF72EFF00205060FBF7E8FD0848016827
:1046100041F040410160FBF7D1FD00201CBD0000CE
:1046200000ED00E071C20F4100E400E03400002022
:1046300034EF00E010B5502080F31188BFF34F8FA6
:10464000BFF36F8F00F046F818B104494FF0805067
:104650000860002080F3118810BD000004ED00E028
:104660002DE9FF5F8346DDE90E87994616468A46A7
:104670009000FFF7E5FD05001AD05420FFF7E0FD9C
:10468000040012D025630021CDE90241CDE9008765
:104690004B46324651465846FFF740FD2046FFF74D
:1046A0006BFC012004B0BDE8F09F2846FFF7AAFE8E
:1046B0004FF0FF30F6E700000548416919B1006B83
:1046C00018B1002070470120704702207047000099
:1046D000400000202DE9F0412E4C0027206B40B116
:1046E000A069401CA061E06900B101273846BDE81F
:1046F000F081E668761CE66013D1606B006838B123
:10470000502080F31188BFF34F8FBFF36F8FFEE708
:10471000606BA16B6163A063206A401C2062FFF79D
:104720006BFDA06ADFF87080864209D3606B006879
:1047300080B1606BC068C568686886420DD2A062AF
:104740002068C06A00EB800158F821000128CAD90E
:104750000127C8E74FF0FF30F1E7281DFFF7F2FD12
:10476000A86A18B105F11800FFF7ECFDE86A01210D
:10477000226981401143216100EB800108EB810037
:10478000291DFFF7FFFDE86A2168C96A8842CDD379
:104790000127CBE740000020A01100202DE9F047C1
:1047A0002C4D00242746286B38B1FFF7F7FD286B06
:1047B000401E2863286B40B146E0502080F31188EA
:1047C000BFF34F8FBFF36F8FFEE7A968224E012022
:1047D000D1B3A6F1B40980463068E8B1F068C46886
:1047E00004F11800FFF7AEFD201DFFF7ABFDE06AF6
:1047F0002A6908FA00F11143296100EB800109EBF5
:104800008100211DFFF7BEFDE06A2968C96A884260
:10481000E2D3C5F81C80DFE70CB1FFF7EDFCAC6913
:1048200044B14646FFF756FF00B1EE61641EF9D170
:104830000020A861E86938B10849012738070860F5
:10484000BFF34F8FBFF36F8FFFF7C8FD3846BDE84A
:10485000F0870000400000205412002004ED00E02A
:104860000200010000000000C4480008AD2E00084E
:1048700000000000000000008000000000000000B8
:10488000000000000102030406070809A0860100D9
:10489000400D0300801A060000350C0040420F0056
:1048A00080841E0000093D0000127A000024F400FC
:1048B00000366E010048E801006CDC0200000000D8
:1048C0000102030464656661756C745461736B0066
:1048D000F04800080000002080000000C0350008FB
:1048E000704900088000002010160000D035000834
:1048F00000000000000000000000000000000000B8
:10490000000000000000000000093D000000000061
:104910000000000000000000000000000000000097
:104920000000000000000000AAAAAAAA00000000DF
:104930000000000000000000000000000000000077
:104940000000000000000000000000000000000067
:104950000000000000000000000000000000000057
:104960000000000000000000000000000000000047
:040000050800018965
:00000001FF
