:020000040800F2
:10000000081D002079020008F72B0008F9290008D4
:10001000F52B0008D90D00080D3D00080000000078
:100020000000000000000000000000009D0100082A
:10003000410E000800000000F10100082937000807
:10004000930200089302000893020008930200083C
:10005000930200089302000893020008930200082C
:10006000930200089302000893020008930200081C
:10007000930200089302000893020008930200080C
:1000800093020008930200089302000893020008FC
:1000900093020008930200089302000893020008EC
:1000A0009302000893020008193800089302000820
:1000B00093020008930200089302000893020008CC
:1000C00093020008930200089302000893020008BC
:1000D00093020008930200089302000893020008AC
:1000E000930200089302000893020008930200089C
:1000F000930200089302000893020008930200088C
:10010000930200089302000893020008930200087B
:10011000930200089302000893020008930200086B
:10012000930200089302000893020008930200085B
:10013000930200089302000893020008930200084B
:10014000930200089302000893020008930200083B
:10015000930200089302000893020008930200082B
:10016000930200089302000893020008930200081B
:100170009302000893020008000000000000000045
:100180009302000893020008DFF80CD000F0ACFCEA
:1001900000480047155C0008081D00202B4B19681B
:1001A000086800F058B880F30988BFF36F8F4FF0EC
:1001B000000080F3118870470000000006480068C6
:1001C000006880F3088862B661B6BFF34F8FBFF353
:1001D0006F8F00DF00BF00BF08ED00E0DFF80C000C
:1001E000016841F470010160704700BF88ED00E0D4
:1001F000EFF30980BFF36F8F144B1A681EF0100FD6
:1002000008BF20ED108A20E9F04F106008B44FF0CD
:10021000500080F31188BFF34F8FBFF36F8F06F04C
:100220006DF84FF0000080F3118808BC1968086869
:1002300000F016B81EF0100F08BF00F016B880F3DB
:100240000988BFF36F8F704700BF00BF60000020B8
:10025000EFF30580704730C8B0E8C04FFFF7A3BF89
:1002600030C8B0E8C04FFFF7E5BFB0EC088AB0EC8B
:1002700008CAFFF7E4BF0000064880470648004769
:10028000FEE7FEE7FEE7FEE7FEE7FEE7FEE7FEE746
:10029000FEE7FEE7D537000889010008B5EEC00A81
:1002A000F1EE10FA07D2DFED1E0AB4EEE00AF1EE2D
:1002B00010FAA8BF7047DFED1B0AB5EEC00A60EE6A
:1002C000200ABDEEE01A11EE100AF1EE10FA38BF66
:1002D000401E00EE100A1549F7EE001AB8EEC00AEB
:1002E00030EEC00ADFED100A60EE200ABCEEE00A34
:1002F00010EE100AC0F3080000EE100A01EB8000B7
:10030000B8EE400A90ED011A70EEC00A90ED000AB6
:1003100071EEE01A21EE800A00EE810A70470000BB
:10032000CD024CB483F9223E00000044C4660008AC
:100330002DE9F04F82B046685368019305884788DD
:100340004B88002000900888874201BFB2F800C0A7
:100350006545528893421EBF6FF0020002B000F064
:1003600085B89FED412A4FEA970EC7F3400B00BFB7
:10037000DDE9000202EB800A4A6898464FF0000966
:10038000B0EE420AB4465FEA0E0025D092ED001AA4
:10039000DCED001A02EB8302DCED010A01EE810ABA
:1003A00092ED001A02EB8302401ED2ED001A02EB1E
:1003B000830200EE810A9CED021ADCED030A0004C0
:1003C0000CF1100C000C01EE210A92ED001A02EB68
:1003D000830200EE810AD9D117F0030026D0ACF1D8
:1003E0000404A2EB830210F0010F08D002EB830299
:1003F000D4ED010A92ED001A241D00EE810A5FEA95
:100400000B0013D002EB830CD4ED010A9CED001A13
:1004100002EBC302401E00EE810AD4ED020A92ED07
:10042000001A04F1080400EE810AEBD109F1010081
:10043000AAEC010A1FFA80F9486800EB8902A8F1CA
:1004400001001FFA80F8B8F1000F99D1009806EB6F
:100450008706184480B20090681E05042D0C87D1D1
:1004600002B0002000F002B80000000030BCBDE87F
:10047000C08F2DE9F05F0546002092469B468846D6
:100480000646814640241BE0284641464746224610
:1004900000F01CFA53465A46C01A914110D3114637
:1004A0001846224600F003FA2D1A67EB01084F4662
:1004B00022460120002100F0FAF917EB00094E4115
:1004C000201EA4F10104DFDC484631462A4643469B
:1004D00000F000B830BCBDE8C09F40EA01039B07B4
:1004E00003D009E008C9121F08C0042AFAD203E0A9
:1004F00011F8013B00F8013B521EF9D270472DE97B
:10050000FE4F804681EA0300C00F0C46009021F0A8
:10051000004123F00045B8EB0200A94105D2404656
:10052000214690461C460B46024623F000401043ED
:1005300047D0270DC7F30A00C3F30A510290401AAF
:10054000019040286BDAC3F3130040F4801B00983D
:10055000924620B10023D2EB030A63EB0B0B019808
:100560005946C0F14002504600F0A1F906460D463A
:1005700050465946019A00F0B9F910EB0800614164
:10058000002487EA115284EAE7731A4340D0009AA4
:1005900062B3019A012A4FEA075215DC001B61EB96
:1005A00002014FF0004202EA0752CDE90042001C6E
:1005B00041F5801132462B4600F0F0F903B000F00F
:1005C00045B840462146F9E7001B61EB0201001CDB
:1005D00041F5801300185B412018A2F5001747EB86
:1005E000030140EAD570B6196D4111E06D084FEA7C
:1005F000360645EAC0754FEA0752001B61EB02015F
:10060000001C41F5801149084FEA300000195141A2
:1006100032462B4603B000F01CB800F0B0B9009889
:10062000012240000023D0EB020263EBE07300984C
:1006300021464FEAE074B8EB000061EB0401E9E702
:1006400083F000435BE781F0004158E730BCBDE830
:10065000C08F30BCBDE8C04FFFF7DFBF2DE9FE4FB4
:1006600081EA030404F0004421F0004100944FF0BB
:10067000000B23F0004350EA01045ED052EA030469
:100680005BD0C3F30A54C1F30A552C44A4F2F334EB
:100690000194A0FB0254C1F3130141F48011C3F390
:1006A000130343F4801301FB024400FB034E840A4E
:1006B000970A44EA815447EA8357A4FB07680295E6
:1006C0008D0A05FB07854FEA932C04FB0C54270584
:1006D000029D4FEA065847EA1637B5EB08056EEB60
:1006E000070C870E920E47EA811742EA8312A7FB96
:1006F0000201B6EB0B0164EB00042B0D43EA0C3353
:100700005E1844EB1C50DA465146E7FB0201C5F384
:1007100013044FEA0B3343EA14534FEA0432019CAB
:1007200043EA0603A4F10C040294009CCDE900B452
:1007300000F034F903B000F003B800200146F9E7F7
:1007400030BCBDE8C08F2DE9F04D81EA030404F010
:10075000004B21F0004514464FF0000A23F0004101
:1007600050EA050220D054EA01021DD0C5F30A5711
:100770000246C5F31303C1F31300C1F30A5640F454
:10078000801543F48013A7EB0608101BD64608F229
:10079000FD3873EB050002D308F1010801E092185F
:1007A0005B41B8F1000F03DA00200146BDE8F08D8F
:1007B00000204FF48011064684460EE0171B73EBB1
:1007C000050705D3121B63EB050306434CEA010C36
:1007D00049084FEA300092185B4150EA0107EDD119
:1007E00052EA030012D082EA040083EA05010843BA
:1007F00005D0101BAB4106D20122002306E00022E7
:100800004FF0004302E06FF0010253101AEB0600B4
:100810004CEB085110EB0A0041EB0B01BDE8F04D29
:1008200000F0ADB800F0004230F000400AD0C10D39
:1008300001F56071C0F3160042EA0151C208400799
:100840001143704700200146704701F0004330B467
:1008500021F0004150EA010206D00A0DA2F56072B3
:10086000C1F31301002A02DC30BC00207047440FA2
:1008700044EAC104C100E01830BC00EBC25000F0F3
:1008800047B830B50B46014600202022012409E07C
:1008900021FA02F59D4205D303FA02F5491B04FA39
:1008A00002F52844151EA2F10102F1DC30BD202A18
:1008B00004DB203A00FA02F1002070479140C2F1B7
:1008C000200320FA03F3194390407047202A04DBE9
:1008D000203A21FA02F00021704721FA02F3D040B9
:1008E000C2F120029140084319467047202A06DBD6
:1008F000CB17203A41FA02F043EAE07306E041FAEE
:1009000002F3D040C2F120029140084319467047DB
:100910000029A8BF7047401C490008BF20F0010013
:10092000704710B4B0FA80FC00FA0CF050EA0104F1
:1009300004BF10BC704749B1CCF1200421FA04F483
:1009400011FA0CF118BF012121430843A3EB0C015C
:10095000CB1D4FEA00614FEA102042BF002010BCBF
:10096000704700EBC35010440029A4BF10BC70476F
:10097000401C490008BF20F0010010BC704710B5B2
:10098000141E73F1000408DA401C41F100019218B2
:100990005B411A4301D120F0010010BD2DE9F04D5B
:1009A00092469B4611B1B1FA81F202E0B0FA80F2B0
:1009B00020329046FFF77BFF04460F4640EA0A00CC
:1009C00041EA0B0153465A46084313D0114653EAF5
:1009D000010019D0C8F140025046FFF777FF0546E5
:1009E0000E46504659464246FFF761FF084305D080
:1009F000012004E020463946BDE8F08D0020054383
:100A000046EAE0762C4337430A986305E40AA0EBF4
:100A100008000022FD0A44EA47540A3002D50020AB
:100A20000146E9E7010510196941DDE908450019AA
:100A30006941BDE8F04DA2E770B521F000430343E2
:100A40000CD0C1F30A550024D5EB040564EB040374
:100A5000D617AD1AB34102DB0020014670BD201845
:100A600041EB025170BD0EB5C10F80EAE070084441
:100A7000CA07002140F233438DE80E000A460B46B8
:100A8000FFF78CFF03B000BDC1F30A52C1F313019D
:100A900040F2FF3341F480119A4202DA002001460D
:100AA000704740F233439A42A2F2334202DC524290
:100AB000FFF70CBFFFF7FBBE30B5041E71F1000459
:100AC00004DB4FF00044404264EB0101141E73F15B
:100AD000000405DB1C464FF00043524263EB040365
:100AE000994208BF904230BD064C074D06E0E068D1
:100AF00040F0010394E8070098471034AC42F6D365
:100B0000FFF746FB3C7000085C7000082DE9F04DD3
:100B100000231A461B1A8A4103DB00200146BDE868
:100B2000F08DC1F30A52C1F3130141F480154FF067
:100B3000000BD10702D100186D41521E0027044658
:100B400040F2FF11384601EB620A3E4680460246FB
:100B500000204FF48011FFF7B9FEC2197141BB1894
:100B600046EB0100B4EB030C75EB000C04D3E41A64
:100B700065EB000517460E46241908F101006D418A
:100B800080463428E3DDF91946EB0600091BA8412D
:100B900003D24FF0FF32134601E0002213461BEB55
:100BA000070046EB0A51BDE8F04DFFF7E8BE000034
:100BB00000B58FB04FF48070069060200090002048
:100BC00007900890099005900B900C900D900A48A2
:100BD00002F028FA60B941F288326946064800F00E
:100BE00066FE28B90549044802F016F8002800D02E
:100BF00001200FB000BD0000180C002080A90300E8
:100C000010B51C4C1A482060204600F096FE60BBD0
:100C100000F032F8022060604FF40001042091FAE5
:100C2000A1F1A060B1FA81F10020491EC4E90301DD
:100C30006061A061204600F09DFEB0B9204602F040
:100C4000A3F908B1042010BD01210A4802F03AF9C5
:100C500058B90121074802F0B7F830B901206060A7
:100C6000044800F087FE0028EDD0012010BD0000F0
:100C7000001000A0180C0020154800B5016D87B0C9
:100C800041F480710165016D01F480710591016B82
:100C900041F480710163016B21F480710163C16CC7
:100CA00041F01001C164C06C694600F0100005906D
:100CB0004FF47C400090022001900020029003201D
:100CC00003900A200490034800F05AFB07B000BDCF
:100CD000001002400010004830B58FB004464FF4B9
:100CE00080700690EB2000904FF4406007904FF426
:100CF000005003904FF440400890AA2002900191C8
:100D000000214FF0407009900420CDE90410CDE996
:100D10000A210C9141F288350D912A46694607480F
:100D200000F0C5FD30B92A462146044800F07CFE9B
:100D3000002800D001200FB030BD0000180C0020AA
:100D40002DE9F0438146C8B2C0F580758FB0954259
:100D500000D915468E180C4638204FF4807100904B
:100D60004FF44060CDE906104801039000204FF099
:100D70004072CDE9080205900B900C9041F2883743
:100D800088460D9013480A95019402F04BF980B9FA
:100D90003A4669460F4800F08AFD50B93A4649463E
:100DA0000C4800F0A7FE20B939460A4801F034FF8C
:100DB00018B101200FB0BDE8F0832C4404F5807019
:100DC000A944B04201D9351B00E04546B442D9D30D
:100DD0000020EFE7180C0020FEE7000017498842CA
:100DE00001D10020704715492031884201D10120EE
:100DF000704712494031884201D1022070470F49A3
:100E00006031884201D1032070470C49803188420B
:100E100001D1042070470949A031884201D1052041
:100E200070470649C031884201D106207047034906
:100E3000E0318842D5D107207047000000600140B2
:100E4000704700002DE9F047044640790027154619
:100E50000E46012809D04FF0010984F805900220C0
:100E600020713068042803D044E00220BDE8F087F8
:100E70004FF003080DBB00F073FB074605E000BF11
:100E800000F06EFBC01B01280FD82068406B0004E7
:100E9000F6D4012000F065FA2168B069086416E014
:100EA00000F05EFBC01B012807D9206940F0080054
:100EB000206184F804800320D8E72068406B002874
:100EC000EEDB012000F04DFA2168B069486420682B
:100ED000816C40F2FF32AA409143F269AA4011436B
:100EE00081642068C16CFF22AA409143326AAA4003
:100EF0001143C1643069012808D12268916B1F2019
:100F0000A84081437069A840084390632268D06B71
:100F10000721A9408843B36831681943F36819432E
:100F2000A9400143D163206801684FF48042AA4080
:100F3000914301602268116840F6FC70A84081432B
:100F40007068A8400843106020680168C022AA4069
:100F50009143016084F804900020607186E770B5C9
:100F6000040003D02079002510B105E0012070BDF8
:100F70006571204600F008F80220207125610120EB
:100F80002071002070BD000000B500680C4987B0DA
:100F9000884213D10B48816D41F000518165806D0D
:100FA000694600F000500590302000900320019029
:100FB000002002904FF0904000F0E2F907B000BD31
:100FC000007400400010024018B5046800940068E6
:100FD000104421B1143000900360002018BD083087
:100FE000F9E730B54279012A12D001224271022379
:100FF000037103681D6802FA01F425431D6000298E
:1010000001680B6806D0C3F383430F2B0AD00DE0B1
:10101000022030BDC3F383030F2B07D14B6843F08D
:10102000010302E04B6843F002034B6002710021B0
:101030004171084630BD000070B5040006D020683C
:10104000FFF7CCFE374D55F8200008B1012070BDE8
:10105000204600F06FF834480168491C01600068C0
:101060003249012819D13248026822F080420260D8
:101070000268A3681A430260026822F47F020260D9
:101080002279012A05D10268A38901EB03431A439F
:101090000260026842F0004202602068026822F4A6
:1010A000714202602268106823691843D4E905364A
:1010B0003343184310602068026822F00F02026078
:1010C000D4E907200243206803681A4302602068BD
:1010D000826822F45F02826020688268636A1A4331
:1010E000238D01EB03410A4382602068416801F0CF
:1010F00007014160E06A216B000240EAC1012068FB
:101100004268114341602068016841F0800101603C
:10111000012084F834002068FFF760FE45F8204085
:10112000002070BDF80B0020300000200000FFFF01
:101130000060014000B5114887B0416800291BD10B
:101140000168491C0160012908D10D48016E41F078
:1011500080710166006E00F0807005904FF4207081
:10116000009002200190002002900390062004903D
:101170006946044800F004F907B000BD28000020CB
:10118000001002400010004870B590F84C40002359
:10119000C4B1FF2C16D0046825680C4E354025607C
:1011A00004686FF30F01012A256804D045EA012184
:1011B0002160026307E04FF4802646EA01210D43D7
:1011C0002560F6E70123184670BD0000FFFFFBF81D
:1011D00070B5040031D03C492068884205D1606870
:1011E00001282AD0E068012827D001250020656465
:1011F0002063A5642065204600F06CF82068016833
:1012000021F400210160207A01282068016816D0AD
:1012100021F000510160607A01282068016811D036
:1012200021F4001101602068016846F208729143C0
:101230000160E068022808D00CE0012070BD41F098
:101240000051E7E741F40011ECE7206801686269AA
:1012500011430160207C0128206801682ED021F014
:1012600010010160607C01282068016829D021F00C
:101270002001016020684169144A114041612068E1
:101280004169E269124B1143228C03EB0242636A0B
:101290005B1E1A431143416160686063E068A063AC
:1012A000A069E063207C84F840002068016841F078
:1012B0000101016084F84C50002070BD41F0100124
:1012C000CFE741F02001D4E70061014000FF001C9E
:1012D0000000FFFF00B5114887B0416800291BD10D
:1012E0000168491C0160012908D10D48016E41F0D7
:1012F00080710166006E00F0807005904FF42070E0
:10130000009002200190002002900390062004909B
:101310006946044800F034F807B000BD28000020FA
:101320000010024000100048C8B101680A6822F0AD
:101330000E020A6001680A6822F001020A6090F851
:101340004410036C01F01C02012101FA02F25A6000
:1013500080F82510002180F82410084670470120ED
:10136000704770B5044600F0FBF80546601C00D0DD
:10137000641C00F0F5F8401BA042FAD370BD0000D9
:101380002DE9F84FDFF898B100234FF0010C4FF032
:10139000030A4FF00F090BF1040EB9E00CFA03F445
:1013A000224070D04D68022D01D0122D0ED1DD08E3
:1013B00000EB8508D8F820505E07F70E09FA07F60B
:1013C000B5430E69BE402E43C8F8206007685E0032
:1013D00091F804800AFA06F508F00308AF4308FA0A
:1013E00006F848EA0708C0F800804F68012F05D0CA
:1013F000022F03D0112F01D0122F13D1D0F8088063
:10140000CF6828EA0508B74047EA08078760D0F8A0
:1014100004800F7928EA0408C7F300179F4047EAC1
:1014200008074760D1F804806FEA0807BF0706D1B4
:10143000C76AA743C8F3C0049C403C43C462C46865
:10144000AC438D68B5402543C5604C68E4005ED56B
:10145000344C256E45F001052566246E23F0030506
:1014600004F001040094304C2E19B4689D072F0F2E
:1014700009FA07F5AC43B0F1904F05D02B4DA842C7
:1014800004D101251CE042E0002519E0284DA842C6
:1014900001D1022514E0274DA84201D103250FE018
:1014A000254DA84201D104250AE0244DA84201D1CE
:1014B000052505E0224DA84201D1062500E00725BB
:1014C000BD402543B560DBF800405D464E6894435F
:1014D000F60300D514432C60DEF8004075464E68D4
:1014E0009443B60300D514432C600D4D08352C6889
:1014F0004E689443F60200D514432C60084D0C3519
:101500002C684E689443B60200D514432C605B1CD3
:101510000A6832FA03F57FF441AF00F013B8000017
:101520000004014000100240000001400004004897
:1015300000080048000C0048001000480014004853
:101540000018004818BCBDE8E08F0069084000D0D2
:10155000012070470AB181617047816270470000C5
:10156000014800687047000034000020024801680C
:10157000491C0160704700003400002010B50320B2
:1015800000F0ACF8002000F005F800F03BF8002077
:1015900010BD000000B5014687B000221A2000F0FF
:1015A0007DF81A2000F06EF81248016E41F4802197
:1015B0000166006E05A900F480200690684600F0E0
:1015C0005DFD00F091FD0C490C4AB0FBF1F10C48B7
:1015D000491E026041603D220021C0E90321816073
:1015E00001F04DF810B1012007B000BD044801F032
:1015F00063F8F9E70010024040420F000048014044
:10160000B80B00201E4808B5016E41F001010166CB
:10161000016E01F001010091816D41F08051816501
:10162000806D00F080500090032000F057F80022F9
:1016300011466FF00B0000F031F8002211466FF0F8
:101640000A0000F02BF8002211466FF0090000F0AC
:1016500025F800221146501F00F020F80022114604
:10166000101F00F01BF800220F21901E00F016F84A
:1016700000220F21BDE80840501E00F00FB8000006
:101680000010024000F01F0201219140400980003B
:1016900000F1E020C0F8001170470000F0B40E4BDC
:1016A0001B680C46C3F30223C3F10705042D00D9C0
:1016B0000425191D072901D2002300E0DB1E0126A5
:1016C00006FA05F1491E214099409E40761E1640BB
:1016D0003143F0BC01F090BA0CED00E0064900F097
:1016E000070208684FF6FF03184040EA0220034A49
:1016F00010430860704700000CED00E00000FA05A0
:101700001549B0F5007F0868C0F3412009D00228D0
:1017100005D0086820F4C06040F4806008600020B4
:1017200070470128FBD0086820F4C06040F40070C6
:1017300008600A480A4A0068B0FBF2F032225043BF
:1017400000E0401E10B14A695205FAD448694005CC
:10175000E5D50320704700000070004038000020ED
:1017600040420F000248006800F4C060704700006B
:1017700000700040F8B504460025FFF7F1FE06466C
:1017800094F83900800736D5002084F838002068A6
:10179000016849070BD5016821F004010160606B05
:1017A000FFF7C2FD18B1E06B40F00400E063206871
:1017B000016841F002010160206C00903346012273
:1017C0000221204601F00AFC050014D12168022004
:1017D000C860206C0090334600222021204601F092
:1017E000FDFB050007D12068416921F0406141619E
:1017F000012084F839002846F8BD00002DE9F84F93
:101800001E4615468A460446FFF7AAFE814694F80E
:10181000380001280ED0012784F8387094F8390078
:101820004FF00008012807D05FF0020084F83880EC
:1018300000F03AB80220FBE7C4F83C80422084F86C
:1018400039004B46002220212046009601F0C6FBBD
:101850000028EBD12168286888622168686848629E
:101860002168A868C86220682969026822F44002D9
:1018700042F4800211430160E968CAF828104FF071
:1018800000625146204601F0EFF94B460122082143
:101890002046009601F0A2FB0028C7D1226808214B
:1018A000D16084F83970C1E718BCBDE8E08F2DE93C
:1018B000F84F17468B460446FFF752FE824694F8CF
:1018C000380001280ED0012684F8386094F83900D9
:1018D0004FF00008012807D0022584F838802846F8
:1018E00000F028B80220FBE7C4F83C804FF0020962
:1018F00084F839905346002220212046009701F0B9
:101900006DFB0500E9D100225946204601F0ACF9F3
:10191000DBF8240058B953460122022120460097E3
:1019200001F05CFB0500D8D12168C1F80C9084F867
:101930003960D2E718BCBDE8E08F10B5040015D0BF
:1019400094F83800012813D0012084F8380020686A
:10195000016821F001010160204600F063F80020D9
:10196000E06384F8390084F8380010BD012010BD10
:10197000022010BDF8B50446FFF7F2FD06465CB143
:1019800094F83800012809D0012784F8387094F8B9
:101990003900002520B10BE00120F8BD0220F8BD80
:1019A00084F83850204600F03EF841F28830206438
:1019B00020680168A2686FF0FF0321F4706103EBF7
:1019C000022211430160206C009033460022202146
:1019D000204601F003FBE8B921680A680F4B1A4062
:1019E000237942EA0362E3681A430A60D4E90512E4
:1019F0001143226853680A4E3340268A43EA06435D
:101A00001943516021680A6842F001020A60E563E7
:101A100084F8397084F83850F8BD0000EFFFFF00FB
:101A2000FEF8E0FF704770472DE9F84F15460F4666
:101A30000446FFF795FD82462068816994F83820B6
:101A400000F12009012A0DD0012684F8386094F8AD
:101A500039204FF00008012A06D0022084F838808F
:101A600000F044B80220FBE7C4F83C80BFB3222258
:101A700084F839200269521C22630269521CE26216
:101A8000A762426922F0406242F0806242612068AF
:101A900081610EE00621204601F0A0FAE0B999F834
:101AA0000000A16A0870A06A401CA062206B401E62
:101AB0002063206B53464FF0010200950028E9D1C6
:101AC0004FF00201204601F089FA28B9216802206E
:101AD000C8602046FFF74EFE84F83960BEE7FFE796
:101AE000E06B40F00800E0630120B7E718BCBDE8F8
:101AF000E08F00002DE9F84F15460F460446FFF72A
:101B00002FFD8246206894F8381000F12009012941
:101B10000ED0012684F8386094F839104FF0000890
:101B2000012907D05FF0020084F8388000F040B847
:101B30000220FBE7C4F83C809FB3122184F83910DF
:101B40000169491C61620169491C2162E7614169BF
:101B500021F0406141610EE00421204601F03EFA8F
:101B6000E0B9E069017889F80010E069401CE061A3
:101B7000606A401E6062606A53464FF00102009541
:101B80000028E9D14FF00201204601F027FA28B9D8
:101B900021680220C8602046FFF7ECFD84F8396018
:101BA000C2E7FFE7E06B40F00800E0630120BBE71D
:101BB00018BCBDE8E08F00002DE9F84F044600276F
:101BC0000088E54D3E46010504F1200B1DD5606EF1
:101BD00078B1B0F5800F11D0B0F5000F04D0B0F59A
:101BE000400F22D001270FE0E86840F48030E86021
:101BF0001BE00021201D01F049FA03E000215846B6
:101C000001F0DAFA070010D03E462088C00426D53D
:101C1000A06EC0B1B0F1807F1AD0B0F1007F0DD0BE
:101C2000B0F1407F19D0012718E0D5F88800616E27
:101C300020F440000843C5F88800E6E7E86840F46F
:101C40008030E86009E00021201D01F01FFA03E068
:101C50000021584601F0B0FA0746F7B13E46206829
:101C600080033AD5A86D4FF00008C00009D4A86DD4
:101C700040F08050A865A86D4FF0010800F080503A
:101C80000090DFF8D8A2DAF8001041F48071CAF8A9
:101C90000010FFF765FC814610E0D5F88800A16EC2
:101CA00020F040700843C5F88800D8E7FFF758FCDB
:101CB000A0EB0900022801D9032705E0DAF80000AB
:101CC000C005F3D5002F7CD04FEA0706B8F1000F0E
:101CD00003D0A86D20F08050A8652078C00707D0F9
:101CE000D5F88800A16B20F003000843C5F88800F0
:101CF0002078800707D5D5F88800E16B20F00C002C
:101D00000843C5F888002078400707D5D5F8880033
:101D1000216C20F030000843C5F8880020780007C7
:101D200007D5D5F88800616C20F0C0000843C5F8DD
:101D300088002078C00607D5D5F88800A16C20F46B
:101D400040700843C5F888002078800607D5D5F88C
:101D50008800E16C20F440600843C5F888002088C2
:101D6000800507D5D5F88800E16D20F440200843B0
:101D7000C5F888002088400507D5D5F88800216E71
:101D800020F440100843C5F888002078400607D5A5
:101D9000D5F88800216D20F440500843C5F888002C
:101DA0002078000607D5D5F88800616D20F4404002
:101DB0000843C5F888002088C00509D5D5F88800F3
:101DC00000E01CE0A16D20F440300843C5F8880015
:101DD00020884FF0006780044FF080684FD5D5F819
:101DE0008800E16E20F040600843C5F88800E06E8E
:101DF000B8423CD1E86840F48010E8603FE0D5F894
:101E0000900010F4407015D0D4F88410814211D0A5
:101E1000D5F89000D5F8901020F4407041F480314E
:101E2000C5F89010D5F8901021F48031C5F89010C5
:101E3000C5F89000C00710D0FFF792FB074641F2AB
:101E4000883906E0FFF78CFBC11B494501D9032601
:101E50003CE7D5F890008007F4D5D5F89000D4F889
:101E6000841020F440700843C5F890002EE74045E8
:101E700005D10121201D01F009F900B106462068B5
:101E8000000317D5D5F88800216F20F04060084383
:101E9000C5F88800206FB84204D1E86840F480108B
:101EA000E86007E0404505D10121201D01F0EEF872
:101EB00000B106462068400317D5D5F88800616F49
:101EC00020F040600843C5F88800606FB84204D134
:101ED000E86840F48010E86007E0404505D1012142
:101EE000201D01F0D3F800B10646208840041AD521
:101EF000D5F88800A16F20F040500843C5F888004D
:101F0000A06FB0F1805F03D0B0F1005F05D00AE0B0
:101F10000221201D01F0BAF803E00221584601F029
:101F20004BF900B106462088000407D5D5F8880093
:101F3000E16F20F080400843C5F888002068C003A6
:101F400007D555F8880FD4F8801020F000400843DA
:101F50002860304600F004B80010024000700040D5
:101F600018BCBDE8E08F00002DE9F0470F460500E2
:101F700058D03E4E306800F00700B84209D23068B1
:101F800020F0070038433060306800F00700B842A6
:101F900048D12878364CC0072CD06868032811D067
:101FA000022812D0216898B1490500293ADAA168BF
:101FB00021F003010143A160FFF7D2FA804641F20C
:101FC000883910E021688901EFE721688903ECE78F
:101FD0008907EAE7FFF7C4FAA0EB0801494502D9EF
:101FE0000320BDE8F087A068696800F00C00B0EB42
:101FF000810FEFD12878800705D5A068A96820F067
:10200000F0000843A060306800F00700B8420BD928
:10201000306820F0070038433060306800F0070077
:10202000B84201D00120DCE72878400705D5A06838
:10203000E96820F4E0600843A0602878000706D52E
:10204000A068296920F4605040EAC100A06000F057
:102050005BF8A168074AC1F30311515CC840064907
:1020600008600020FFF796FA0020BAE7002002403F
:10207000001002407C660008380000200F22026039
:102080000C4A936803F003034360936803F0F00382
:102090008360936803F4E063C36092684FF4E06385
:1020A00003EAD20202610448006800F007000860F9
:1020B0007047000000100240002002400148006804
:1020C000704700003800002004480549006889680E
:1020D000044AC1F30221515CC84070473800002017
:1020E00000100240BC660008044805490068896881
:1020F000044AC1F3C221515CC84070473800002037
:1021000000100240BC66000830B52D490023184677
:102110008A682C4C12F00C0F4FEA640514D08A68C0
:10212000C2F38102032A04D1CA6802F00302012A21
:102130000AD08A68C2F38102012A19D08A68C2F3E0
:102140008102022A16D016E00A68120704D4D1F8D8
:102150009420C2F3032202E00A68C2F303121A4B6E
:1021600053F822308A6812F00C0F04D1184602E0AE
:10217000204600E028468A68C2F38102032A1DD166
:10218000C868CA6800F00300C2F30212521C022899
:1021900004D0032805D0B3FBF2F004E0B4FBF2F066
:1021A00001E0B5FBF2F0CA68C968C2F306225043E9
:1021B000C1F34161491C4900B0FBF1F030BD0000A2
:1021C000001002400024F4008C6600082DE9F8435A
:1021D00004007DD02078FF4DC0065DD5A86810F0C2
:1021E0000C0F0AD0A0690028286873D040F00100C5
:1021F0002860FFF7B5F9064655E02868800702D544
:10220000A0690028E5D0216A2868000703D528685E
:1022100000F0F00004E0D5F89400F02202EA10107B
:10222000814216D9084601F04BF8002850D12868A1
:1022300040F0080028602868216A20F0F000084378
:1022400028606868E16920F47F4040EA0120686006
:1022500015E0286840F0080028602868216A20F00E
:10226000F000084328606868E16920F47F4040EA94
:1022700001206860206A01F023F80028D6D1FFF71A
:1022800043FFA968D44AC1F30311515CC840D34944
:1022900008600020FFF77EF92CE000BFFFF760F92F
:1022A000801B02287ED828688007F7D5286840F070
:1022B000080028602868216A20F0F00008432860A0
:1022C0006868E16920F47F4040EA0120686011E01D
:1022D000B2E0FFE720F001002860FFF741F9064671
:1022E00005E000BFFFF73CF9801B0228DAD8286818
:1022F0008007F7D42078C00748D0A868C0F38100D1
:1023000002281DD0A868C0F38100032803D1E86823
:10231000C043800714D06068B0F5803F17D0B0F597
:10232000A02F286817D020F480302860286820F477
:10233000802028606068E0B1FFF712F9064614E0DB
:102340002868800322D56068002875D01EE02868C0
:1023500040F48030EDE740F480202860F7E700BFCC
:10236000FFF7FEF8801B64289CD828688003F7D507
:102370000CE0FFF7F5F8064605E000BFFFF7F0F8C0
:10238000801B64288ED828688003F7D420788007C3
:1023900042D5A868C0F38100012816D0A868C0F310
:1023A000810000E0A9E0032804D1E86800F0030000
:1023B00002280AD0E068002828681DD040F4807008
:1023C0002860FFF7CDF806460BE0286840050BD5DE
:1023D000E0680028B9D007E0FFF7C2F8801B0228A8
:1023E00084D828684005F7D56868217C20F0F8502B
:1023F00040EA016068600FE020F480702860FFF719
:10240000AFF8064605E000BFFFF7AAF8801B0228D8
:1024100073D828684005F7D42078000729D560696B
:102420000028D5F8940013D040F00100C5F89400BE
:10243000FFF796F8064606E0FBE000BFFFF790F8CE
:10244000801B022859D8D5F894008007F6D510E0F3
:1024500020F00100C5F89400FFF782F8064604E07A
:10246000FFF77EF8801B022847D8D5F89400800734
:10247000F6D42078400763D5A86D0026C00008D4A4
:10248000A86D40F08050A865A86D012600F080502E
:10249000009053480168C90511D40168804641F491
:1024A00080710160FFF75CF8074604E0FFF758F819
:1024B000C01B022821D8D8F80000C005F6D5A068B6
:1024C000012815D00528D5F8900017D020F001007C
:1024D000C5F89000D5F8900020F00400C5F89000F1
:1024E000A06841F28838C8B1FFF73AF8074610E013
:1024F000D5F8900040F00100F0E777E040F00400EC
:10250000C5F89000F4E700BFFFF72AF8C11B41456A
:102510006CD8D5F890008007F6D50CE0FFF720F8CE
:10252000074604E0FFF71CF8C11B414579D8D5F8F0
:1025300090008007F6D41EB1A86D20F08050A865E9
:10254000A06AE0B3A968C1F38101032972D002280F
:10255000286820F08070286011D02868000106D417
:102560002868800003D4E86820F00300E860E86889
:102570001C490840E860FEF7F3FF044654E0FEF70C
:10258000EFFF064605E000BFFEF7EAFF801B0228CA
:1025900047D828688001F7D4206BE16A0001103821
:1025A0000843616BA26B0902120941EA42410843E8
:1025B000A18F0D4A490802EB4151084300E036E083
:1025C00094F840104908120102EB41610843E860A9
:1025D00028680CE0001002407C66000838000020EB
:1025E00000700040FFFFEEFE0000E0FF19E040F049
:1025F00080702860E86840F08070E860FEF7B0FF07
:10260000044604E0FEF7ACFF001B022809D8286846
:102610008001F7D50BE000BFFEF7A2FF001B0228E8
:1026200002D90320BDE8F88328688001F4D4002093
:10263000F8E7FFE70120F5E74FF0E02104280869FB
:1026400003D020F004000861704740F00400FAE76E
:1026500010B5401EB0F1807F01D3012010BD4FF0B6
:10266000E02460610F21601700F0C6FA0020A0612D
:1026700007202061002010BD70477047704710B5DB
:10268000040003D094F83D0010B107E0012010BD14
:10269000002084F83C00204600F00CF8022084F86A
:1026A0003D00211D206801F0BDF8012084F83D00A7
:1026B000002010BD704700000168CA6842F00102A6
:1026C000CA600068826807490A40062A08D0826802
:1026D0000A40B2F5803F03D0016841F0010101607A
:1026E0000020704707000100704770B5044600687D
:1026F00001694FF00005C943890715D4C168C94372
:10270000890711D4E91E01610120207720688069C2
:102710008007204602D0FFF7E7FF04E000F0A7F8AB
:10272000204600F0A5F8257720680169C9434907CC
:1027300017D4C168C943490713D46FF0040101617C
:10274000022020772068806910F4407F204602D064
:10275000FFF7CAFF04E000F08AF8204600F088F88E
:10276000257720680169C943090716D4C168C943A0
:10277000090712D46FF00801016104202077206856
:10278000C0698007204602D0FFF7AEFF04E000F0EA
:102790006EF8204600F06CF8257720680169C9437F
:1027A000C90617D4C168C943C90613D46FF0100114
:1027B0000161082020772068C06910F4407F20461E
:1027C00002D0FFF791FF04E000F051F8204600F03E
:1027D0004FF8257720680169C943C90708D1C16846
:1027E000C943C90704D1891E0161204600F042F89F
:1027F00020680169C943090609D4C168C9430906AB
:1028000005D46FF0800101612046FFF736FF206894
:102810000169C943C90509D4C168C943090605D47A
:102820006FF4807101612046FFF726FF206801697F
:10283000C943490609D4C168C943490605D46FF0A4
:1028400040010161204600F023F820680169C94376
:1028500089060BD4C168C943890607D46FF02001EB
:1028600001612046BDE87040FFF708BF70BD7047AA
:1028700070470000044A0121116000680349884242
:1028800001D1FEF773BE70471000002000480140E0
:10289000704710B5040003D094F8710010B107E040
:1028A000012010BD002084F87000204600F026F8BA
:1028B000242084F871002068016821F00101016082
:1028C000204601F0A1F80128EBD0606A10B1204643
:1028D00001F008F82068416821F4904141602068C7
:1028E000816821F02A0181602068016841F00101BE
:1028F00001602046BDE8104001F058B800B50068FE
:102900000E4987B0884216D10D48016E41F48041CE
:102910000166006E694600F480400590C02000907A
:1029200002200190002002900320039007200490D1
:102930000448FEF725FD07B000BD00000038014047
:1029400000100240000400482DE9F843044690F8C6
:1029500071001F4616460D4620284BD1C5B1BEB1A9
:1029600094F87000012845D0012084F870004FF0E1
:102970000008C4F87480212084F87100FEF7F0FD8F
:10298000A4F850608146A4F852604FF4805615E0D8
:102990000120BDE8F8838021204601F085F9D8B9EF
:1029A000A068B04201D12069C0B115F8010B2168BF
:1029B0000885B4F85200401EA4F85200B4F8520042
:1029C0004B464FF0000200970028E4D14FF0400141
:1029D000204601F069F930B10320DAE735F8020B3F
:1029E000C0F30800E3E7202084F8710084F87080C9
:1029F0000020CEE70220CCE7FEE7000010B5114929
:102A00008AB00F4808600846FEF7A9FA00B1FEE751
:102A100000240094019402940394224669460948D4
:102A20000494FEF70FFA00B1FEE71022694605484C
:102A30000394FEF707FA002800D0FEE70AB010BDA5
:102A400000740040A40000202DE9F04734483349C9
:102A50000024C0E90014012505724472CE058027C8
:102A6000C661C0E90875FEF7B3FB00B1FEE72C486C
:102A70002A4954308031C0E9001405724472C6619D
:102A8000C0E90875FEF7A4FB00B1FEE7244823491E
:102A9000A830E03902C04E0600F8045B4FF0200970
:102AA00040C08915E0E802944FF0040AE0E80241D2
:102AB0001C4FE0E8025A4FF00D0880E8B0011848BA
:102AC000A830FEF7B9FA00B1FEE715481349E03027
:102AD000C03902C000F8045B40C0E0E8039440F84D
:102AE000044C10C0E0E8024A80E8B0010C48E03035
:102AF000FEF7A2FA00B1FEE701220B490848FEF7F3
:102B000043FB00B1FEE70648012208495430FEF7B6
:102B10003BFB002800D0FEE7BDE8F08700610140E4
:102B2000B800002080FBFFFF02000100040002004B
:102B300070B51F4886B0C16C41F00401C164C16C1E
:102B400001F004010591C16C41F00101C164C16C47
:102B500001F001010591C16C41F00201C164C16C39
:102B600001F002010591C16C41F01001C164C06C1B
:102B7000104E00F010004FF48045059000222946C9
:102B80003046FEF7E7FC00246810CDE900046946F2
:102B900009480294FEF7F4FB01200095CDE90104F9
:102BA000694630460394FEF7EBFB06B070BD0000AB
:102BB0000010024000040048000800480C4810B50E
:102BC0000A4901604FF4E1314160002181600C222B
:102BD000C160C0E904128161C16101624162FFF715
:102BE00058FE002800D0FEE710BD0000003801406C
:102BF000D0010020FEE770470907090E002806DA19
:102C000000F00F0000F1E02080F8141D704700F183
:102C1000E02080F80014704700B595B04FF4807044
:102C200006900520009000204FF08072CDE9080248
:102C300005900122CDE90E0207900B900C900D90AB
:102C4000CDE911201020109080040B4613900EAA9D
:102C500069460448FEF7D2FD002800D0012015B0D7
:102C600000BD0000180C0020F0B54B6A4FF0406525
:102C70002BB1AA4203D08B6A04685B1E23618C6966
:102C80000B6A002C57D05BB304688B68E361CC6996
:102C9000B4B1D1E90B3633434F6A4E6B3E433343F5
:102CA0008E8A43EA86430E6933430E6A3343CE6805
:102CB000334323438C6924E0006849688161F0BD97
:102CC000D1E90B3423434D6A4C6B2C4323438C8A4C
:102CD00043EA84430C6923430C6A23438C6923E051
:102CE000CE69BEB1D1E90B373B43D1F824C04F6B5D
:102CF00047EA0C073B438F8A43EA8743CF683B434D
:102D0000334323430C682343046813436361AA429B
:102D1000D2D1F0BDD1E90B352B434E6A4D6B354313
:102D20002B438D8A43EA85430968234300680B439C
:102D300013434361F0BD3BB304688B68E361CC6926
:102D400094B1D1E90B3633434F6A4E6B3E43334364
:102D50008E8A43EA86430E6933430E6A3343CE6854
:102D6000334323438C69CEE7D1E90B3423434D6AC7
:102D70004C6B2C4323438C8A43EA84430C692343E2
:102D80000C6A89692343D1E7CC6964B1D1E90B3678
:102D900033434F6A4E6B3E4333438E8A43EA864346
:102DA000CE683343AFE74B6A002BC3D0D1E90B4564
:102DB0002C434D6B898A1D432C43006844EA8141B2
:102DC00011434161F0BD00002DE9F04190B04FF496
:102DD000807006900520009000200C464FF0807116
:102DE00001250590CDE90801CDE90A5007900C9026
:102DF00041F288360D90324669463148FEF757FD5C
:102E000000285BD1B04632460EA92D48FEF70CFED5
:102E1000002853D1022715260A97424669462848BA
:102E20000096FEF744FDE8BB42460DF13901244807
:102E3000FEF7FAFDB0BB224800F0F4F890BB9DF815
:102E40003A00012C0FD020F0020000BF8DF83A00AC
:102E5000009503200A904546424669461848FEF709
:102E600026FDF8B902E040F00200EFE72A460EA97D
:102E70001348FEF73FFEA8B929461148FFF7CCFEDC
:102E800080B90A972A4669460D480096FEF70FFD5D
:102E900040B92A460EA90A48FEF7C6FD10B99DF8AA
:102EA000390000E00AE0810703D4012C06D0800736
:102EB00000D51CB1002010B0BDE8F0810120FAE778
:102EC000180C0020F0B58FB04FF4807006900020F1
:102ED00005260D4600964FF0807101240590CDE93E
:102EE0000801CDE90A4007900C9041F288370D9017
:102EF0003A4669462348FEF7DAFCE0BB3A460EA99B
:102F00002048FEF791FDB0BB1E4800F08BF890BB47
:102F10009DF83800012D0CD020F040008DF83800CD
:102F200000943C463A4669461648FEF7C0FC10BB82
:102F300002E040F04000F1E722460EA91148FEF7FA
:102F4000D9FDC0B921460F48FFF766FE98B9224661
:102F500069460C480096FEF7AAFC60B922460EA905
:102F60000848FEF761FD30B99DF83800400603D4EB
:102F7000012D05D001E003E015B100200FB0F0BD38
:102F80000120FBE7180C002010B58EB04FF48070C4
:102F90000690662000900020079008900990059008
:102FA0000B900C9041F288340D90224669460A48F5
:102FB000FEF77DFC68B999200090224669460648D4
:102FC000FEF775FC28B921460348FFF725FE0028C7
:102FD00000D001200EB010BD180C00202DE9F041EA
:102FE000984616460F460446069D08E0681C06D023
:102FF000FEF7B6FAA0EB0800A8420AD84DB1206847
:103000008068384000D00120B042EFD10020BDE8F8
:10301000F081042084F83900E06B40F00100E063A7
:103020000120F4E730B595B000244FF4807006908D
:10303000062005940794089441F28835009009947D
:103040000B940C942A4669460D940F48FEF72FFC0A
:10305000B0B902200E900F900120CDE9110410208C
:10306000109080041390052000904FF0807009901C
:103070002B460EAA69460448FEF7C0FB002800D084
:10308000012015B030BD0000180C00202DE9F041E2
:10309000444C05468846E0680026810728680DD024
:1030A000E16801F00301814216D1A8B1E0686968C6
:1030B000C0F30210401C88420ED120E0012804D049
:1030C000022805D0032807D108E02168890701E01C
:1030D00021684905002907DB01265FE02168890393
:1030E00002D421684903F5E7E1686A686FF00F03CD
:1030F00021F0730103EB021211430143E1602068E8
:1031000020F080602060FEF72BFA074605E000BF44
:10311000FEF726FAC01B022837D820680001F7D432
:10312000B8F1000F18D0B8F1010F1ED0287D4FF074
:103130007E41400801EB4060A96840EA0120216916
:10314000194A114008432061206840F080602060E7
:10315000FEF706FA07461AE0A868E96800020909BE
:1031600040EA41402169114AEBE7288A10494008AA
:1031700001EB4050A96840EA012021690D4AE0E7CF
:10318000FEF7EEF9C01B022801D9032606E02068ED
:103190000001F5D52069A969084320613046BDE8E2
:1031A000F081000000100240FF80FFF9FF80FDFF6A
:1031B0000000E0FFFF809FFF2DE9F0413D4C0646F7
:1031C0008846E0680025810730680DD0E16801F08D
:1031D0000301814216D1A8B1E0687168C0F3021002
:1031E000401C88420ED120E0012804D0022805D0DE
:1031F000032807D108E02168890701E02168490513
:10320000002907DB012551E02168890302D42168E8
:103210004903F5E7E16872686FF00F0321F073016D
:1032200003EB021211430143E160206820F080505B
:103230002060FEF795F9074605E000BFFEF790F91C
:10324000C01B022829D820688000F7D4B8F1000FED
:1032500015D0307C4FF07E41400801EB4060B168F2
:1032600040EA01206169144A114008436061206806
:1032700040F080502060FEF773F907460FE0B06819
:10328000F1680002090940EA414061690B4AEBE735
:10329000FEF766F9C01B022801D9032506E0206865
:1032A0008000F5D560697169084360612846BDE812
:1032B000F081000000100240FF80FFF9FF80FDFF59
:1032C000F8B51C4D06460024A86DC00002D5FEF7D7
:1032D00049FA0DE0A86D40F08050A865A86D00F097
:1032E00080500090FEF73EFAA96D21F08051A9654B
:1032F000B0F5007F04D0802E07D94FF003040AE018
:10330000802E08D9A02E01D804E001D1022402E0C9
:10331000702E00D101240848016821F007012143E3
:103320000160006800F00700A04201D00120F8BD54
:103330000020F8BD00100240002002402DED068B59
:1033400092B00220ADF82C00ADF834000121002528
:1033500007AA04A8ADF82E100C92ADF836100E9006
:10336000A8462A468903AE48FEF7F4F8AD4800F0B7
:10337000CFFCDFF8B4A20AF5C870DFEDAC9A9FED80
:10338000AC8AF7EE008A9FEDABAA9FEDAB9A4FF4A3
:10339000C87B0A904FF40051A848FEF7D6F838B918
:1033A0006D1C062D0FD0012291039D48FEF7D2F827
:1033B000012D0ED0022D7DD0032D7CD0042D7BD08D
:1033C000052D7AD022E101252A46A9039448FEF76B
:1033D000C1F89B4800F09CFCDFF8689200244FF491
:1033E000FA4700BFD9F80010002967D000216420F7
:1033F000C9F8001094FBF0F100FB1146B8F1000F82
:1034000011D0EEBB94FBF0F1800041435A46864850
:103410000291FDF761FC02995A4601F5FA310A98CA
:10342000FDF75AFC50E000EE104AB8EEC00A60EE1C
:10343000290A80EE880AFCF731FF30EE280A8DED6C
:10344000070A00EE104AB8EEC00A60EE0A0A80EEE3
:10345000880AFCF723FF30EE280ADDED070A7948D9
:103460000DAA60EE890A20EE090A0BA9CDED070A24
:103470008DED080A0830FCF75BFF9DED040A00E0C3
:1034800022E00AEB8600632E80ED000A9DED050A1E
:1034900080ED640A18D1632094FBF0F14FF4C870FA
:1034A000491E41435A4660480291FDF749FC5A467D
:1034B000029904E02BE034E039E0ACE023E001F5D0
:1034C000FA310A98FDF73CFC0AEB8606082296EDD5
:1034D000000A00215C48BCEEC00A10EE103AFDF76D
:1034E00073FD96ED640A08221021BCEEC00A56480E
:1034F00010EE103AFDF768FD641CBC4203D14FF09A
:10350000010844466EE7641CBC42FBDB78E04FA038
:1035100000F0FEFB9FED5D0A4FF47A7001F0C6FFEC
:103520006EE05B4800F0F4FB02F0FAFA68E059A0A4
:1035300000F0EEFB002400EE104A642794FBF7F045
:10354000B8EEC00A07FB104660EE290A80EE880A32
:10355000FCF7A4FE30EE280A8DED070A00EE104AB3
:10356000B8EEC00A60EE0A0A80EE880AFCF796FE02
:1035700030EE280ADDED070AB8F1000F60EE890A87
:1035800020EE090ACDED070A8DED080A11D086B9A3
:1035900094FBF7F74FF4C87047435A4607F57A3162
:1035A0004C48FDF799FB4C485A4639184B48FDF7F3
:1035B00093FB4848DDED080A00EB860999ED640AA3
:1035C00030EE600A10EE100AFDF72CF999ED000AB2
:1035D000DDED070A06460F4630EE600A10EE100ACF
:1035E000FDF720F9009641EC100BCDE9017453EC86
:1035F000102B3BA000F08CFB641CB4F5FA4F9ADB57
:1036000000224FF480410648FDF7A4FF4FF47A7082
:10361000FDF7A7FEBEE635A000F07AFBF0E700005C
:1036200000040048586F000858020020D67BCD44A3
:1036300000007A4624F0194500004842000800487E
:10364000A06F000810000020A40000202D2D2D2DBB
:103650002D2D2D2D2D2D2D2D2D2D2D2D2D2053743A
:103660006167652032203A20464153542049434146
:10367000202D2D2D2D2D2D2D2D2D2D2D2D2D2D2D87
:103680002D2D2D2D2D2D2D0A0000000017B7D1381E
:10369000E86F00082D2D2D2D2D2D2D2D2D2D2D2DAF
:1036A0002D2D2D2D2D2053746167652034203A2057
:1036B000434F4D50415249534F4E202D2D2D2D2D0E
:1036C0002D2D2D2D2D2D2D2D2D2D2D2D2D2D2D2D2A
:1036D0002D0A00007805002000DC05000807002006
:1036E00025660925660925640A0000002D2D2D2D6B
:1036F0002D2D2D2D2D2D2D2D2D2D2D2D2D2053749A
:103700006167652035203A20444F4E45202D2D2DF0
:103710002D2D2D2D2D2D2D2D2D2D2D2D2D2D2D2DD9
:103720002D2D2D0A0000000002F0CFBAF0B5B9B07F
:103730001020012500242290CDE928540226602083
:10374000CDE92C652A9028200727CDE92E50CDE918
:103750003076329622A8FEF739FD00B1FEE70F2041
:1037600033900320CDE934043694042133A83794F0
:10377000FEF7FAFB00B1FEE715481994CDE9000504
:1037800020942020CDE90250C0020E94CDE90660BD
:10379000CDE904766846FEF70FFA00B1FEE74FF474
:1037A0000070FDF7ADFF00B1FEE7FEF787FC4FF4B8
:1037B0007A71B0FBF1F0FEF74BFF0420FEF73CFFFF
:1037C00000220F21501EFDF769FF39B0F0BD000047
:1037D000010801000D48016841F4700101600C48C6
:1037E000016841F001010160002181600268094B1C
:1037F0001A4002608214C260026822F480220260D1
:1038000081610249C00380390860704788ED00E09B
:1038100000100240FFFFF6EA0148FEF766BF000015
:10382000B80B00202DE9F0470268264B264D274EA5
:10383000274F284C4FF0804A984209D0504507D076
:10384000A84205D0B04203D0B84201D0A04204D172
:1038500022F0700C4A6842EA0C02DFF87CC0DFF804
:103860007C80DFF87C9098420FD050450DD0A84264
:103870000BD0B04209D0B84207D0A04205D0604575
:1038800003D0404501D0484503D122F44075CA68B1
:103890002A434D6922F080022A4302608A68C2628C
:1038A0000A688262984207D0A04205D0604503D0E2
:1038B000404501D0484501D10969016301214161B9
:1038C000BDE8F087002C01400004004000080040E3
:1038D000000C004000340140004001400044014021
:1038E0000048014090F82410C90706D001684A68D2
:1038F000836A22F400321A434A6090F82410890740
:1039000006D501684A68C36A22F480321A434A60C5
:1039100090F82410490706D501684A68036B22F421
:1039200080221A434A6090F82410090706D50168DE
:103930004A68436B22F400421A434A6090F824100C
:10394000C90606D501688A68836B22F480521A433F
:103950008A6090F82410890606D501688A68C36BCE
:1039600022F400521A438A6090F82410490611D5B7
:1039700001684A68036C22F480121A434A60016CA1
:10398000B1F5801F06D101684A68436C22F4C00279
:103990001A434A6090F82410090606D501684A685F
:1039A000806C22F4002202434A607047F8B500267A
:1039B00004464667FDF7D4FD0546206800686FF0B1
:1039C0007E47000708D52B4600224FF40011204601
:1039D000009700F069F960B92068006840070AD5CF
:1039E0002B4600224FF480012046009700F05CF93E
:1039F00008B10320F8BD202084F8710084F872001B
:103A000084F870600020F8BD2DE9F041044601689B
:103A100080682369E66918436369102500273343EA
:103A20001843954A0B68954E334003430B6020685A
:103A30004168E36821F44051194341602168A0695D
:103A4000914201D0236A18438B6823F43063034307
:103A50008B608B4B21688B4899420DD1D0F8880040
:103A600010F0030006D001285AD0022856D00328AF
:103A700059D157E0012556E0834B99420BD1D0F83C
:103A8000880010F00C0047D0042849D0082845D001
:103A90000C2848D146E07D4B99420BD1D0F88800E4
:103AA00010F0300038D010283AD0202836D03028F6
:103AB00039D137E0764B99420BD1D0F8880010F01D
:103AC000C00029D040282BD0802827D0C0282AD158
:103AD00028E0704B99420ED1D0F8880010F4407065
:103AE0001AD0B0F5807F1BD0B0F5007F16D0B0F5AE
:103AF000407F18D116E0914215D1D0F8880010F41B
:103B0000406009D0B0F5806F0AD0B0F5006F05D0E5
:103B1000B0F5406F07D105E0002504E0022502E082
:103B2000042500E008255C4B00264FF4004091423C
:103B30003DD135B1022D07D0042D07D0082D10D16D
:103B400007E0FEF7C1FA03E0184602E0FEF7DCFAF0
:103B5000A8B3626802EB4201814202D8B0EB023F97
:103B600001D9012775E0DFF834815DB1022D0CD059
:103B7000042D13D0082DF4D150082905401846F122
:103B8000000105E0FEF7A0FA0AE050084449F5E715
:103B90000023FCF76EFCA0F5407156E0FEF7B4FA86
:103BA0006268010E0302500818187141F0E7E169DC
:103BB0004FF6EF7881422FD1092DD2D200E048E0B4
:103BC000DFE805F006092005230505052600C8E7FE
:103BD000FEF77AFA01E0FEF787FA4100D4F8040014
:103BE00001EB5001B1FBF0F080B2A0F110014145B2
:103BF000B7D84FF6F0710140C0F34200014320688E
:103C0000C16026E027496068EAE7FEF77DFAE4E74D
:103C10004FF480316068E3E7092DA2D2DFE805F0B8
:103C200006091E052205050525009AE7FEF74CFA50
:103C300001E0FEF759FA0146606801EB500100BF50
:103C4000B1FBF0F080B2A0F11001414589D82168A4
:103C5000C860266638466666BDE8F081606803EB9A
:103C60005001EDE7FEF750FAE5E7616800EB51001F
:103C7000B0FBF1F0E6E7000000800040F369FFEFE1
:103C8000003801400010024000440040004800405D
:103C9000004C0040005000400024F400FFFC0F00E6
:103CA000000024F40048E8012DE9F0419846174649
:103CB0000E460446069D1DE0681C1BD02DB1FDF785
:103CC0004FFCA0EB0800A84214D92068016821F439
:103CD000D07101602068816821F00101816020209D
:103CE00084F8710084F87200002084F870000320CA
:103CF000BDE8F0812068C06936EA000004D00020E9
:103D0000B842D9D00020F3E70120F9E7FEE7000030
:103D10000FB4054B10B503A9044A029801F00CF842
:103D200010BC5DF814FB0000F55B00089C0000204F
:103D300003B401984100009850EAC12018BF042044
:103D40004A0D18BF40F0010040F2FF72B2EB515F24
:103D500008BF40F00200012808BF052002B07047EC
:103D60002DE9F04D2DED040B2DED0E8B96B0DDE918
:103D70002550279CDDF890A025F0004624F000484F
:103D8000BAF1000F14BF0121002101EB4502FC49EB
:103D900053184A1093422AD3002814BF012300234A
:103DA00003EB44030B44F7498B4220D358EA00014C
:103DB0009FEDF59B76D0DFF8D8B35D4503D1BAF11E
:103DC000000F05D188E0BAF1000F08BF002100D034
:103DD000012101EB450111F5001F08D8002814BF8F
:103DE0000121002101EB440111F5001F0BD99DEDCC
:103DF000261B9DED240B16B000F0DABD04B0BDE823
:103E0000F04D00F081BE0027002DBCBFE149884580
:103E100021DAE1498845A8BF02271CDAC3451ADC2C
:103E2000DE4901EB2851142908DDC1F1340220FAE2
:103E300002F101FA02F282420DD108E058B9C1F153
:103E4000140228FA02F101FA02F2424503D101F00C
:103E50000101C1F1020756EA0A0124D1002C22DA3D
:103E6000002D18BF022F01D0012F0AD0022000F030
:103E700097FE16B000F0A2BD04B0BDE8F04D00F012
:103E80002BBE022000F08CFE00F026FE51EC100B41
:103E900081F0004141EC100B16B000F095BD04B06C
:103EA000BDE8F08D18E09FEDBEAB9FEDBF8B002805
:103EB00071D1B848804522D105F1804010F58010BD
:103EC00008BFBAF1000F07D0B3450ADC002CA8BF29
:103ED0009DED260BE0DA0DE0B0EE490AF0EE690A3E
:103EE000DAE7002C06DA9DED260B51EC100B81F081
:103EF00000416FE0AE48784490ED000BCCE7D84528
:103F00004DD1002C48DA2EB186423AD1BAF1000FD9
:103F100042D126E0BAF1000F13D0022000F040FE9B
:103F200000F00EFE8DED020B9DED240B8DED000BD0
:103F300010EE900A039961F31E0003909DED020BB1
:103F4000AAE78DED02AB9DED240B1AEE901A10EE50
:103F5000900A8DED000B61F31E0003909DED020BA6
:103F60009AE78DED028B9DED240B18EE901A10EE62
:103F7000900A8DED000B61F31E0003909DED020B86
:103F80008AE709DA9DED240B51EC190B53EC102B49
:103F9000FCF7D9FB1EE020E09DED240B7CE7864278
:103FA0001BDAB4F1804F0DD0A4F10050B0F1FF50F6
:103FB00013D1002D11DB9DED240B51EC100B02F001
:103FC0008BF807E09DED240B53EC102B51EC100BFC
:103FD00000F0C2BC41EC100B5EE79DED240B51ECF0
:103FE000100B01F057FABAF1000FCDE90E0142D1E2
:103FF0009FED710B46B3A6F1E040B0F17F600CD0AD
:104000005E4538D1002D00DAA7B3022F0CBF012086
:104010004FF0FF30FCF727FDDCE7002D01DD002C21
:104020000DDA002D01DD002C1FDB002D16DA002C2F
:1040300014DB012F08BF9FED620B3FF42DAFB0EEF4
:104040004A0AF0EE6A0A27E7022F18BF002D0CD0AB
:10405000012F0AD1002DFFF61FAF06E0002DB8BFDB
:10406000002C08DA012F3FF417AFB0EE480AF0EE4B
:10407000680A11E71BE0012000EBE57050EA070138
:1040800015D0791EB0EE498AF0EE698A084308BF60
:104090009FED4D8B4E480025804570DD4D494E48C3
:1040A000884514DDB0420DDB002C19DB2FE0012028
:1040B00000F076FD16B000F08DBC04B0BDE8F04D08
:1040C00000F02EBDB34502DC002C09DC1FE0864267
:1040D00002DA002C1BDA03E05E452BDD002C16DD36
:1040E000022000F05DFD00F02BFD8DED020B53EC86
:1040F0001A2B51EC180BFCF7B1FACDE9000103992A
:10410000019861F31E0003909DED020BC4E60220AE
:1041100000F046FD00F024FD10EE901A18EE900A13
:104120008DED020B8DED008B61F31E0003909DED74
:10413000020BB1E69DED0E0B53EC192B51EC100B5D
:10414000FCF77EFA9FED260BCDE9080153EC102B0E
:104150009DED080B51EC100BFCF780FA9FED221B34
:1041600053EC112BFCF76FFA9DED081B53EC112B50
:10417000FCF774FA9FED1E1B53EC112B3CE08CE016
:10418000FFFF1F00FFFF0F00000000000000F03FD6
:104190000000F03F0000F07F0000404301FCFFFF03
:1041A000000000000000F07F0000000000000000A0
:1041B00056300000000000000000000000000080F9
:1041C000000000000000F0FF000000000000F0BF51
:1041D0000000E0410000F043FFFFEF3F000000005F
:1041E000000000000000D03F555555555555D53FAE
:1041F000000000000000E03FFCF725FA9DED080BF1
:1042000041EC1A0B53EC102B51EC100BFCF726FA77
:1042100053EC1A2BFCF722FA41EC1A0B9FEDFE0B24
:1042200053EC102B9DED080B51EC100BFCF716FA1C
:1042300041EC1B0B9FEDFA0B51EC1A0B53EC102BBE
:10424000FCF70CFA41EC1A0B9FEDF70B53EC102B1B
:104250009DED080B51EC100BFCF700FA53EC1A2BF8
:10426000FCF7EEF941EC1A0B51EC1B0B53EC1A2B3B
:10427000FCF745F90690CDE906519DED060B53EC90
:104280001B2B51EC100BFCF7DBF953EC1A2BFCF752
:10429000DAF941EC100B00F0A1B90020B6F5801F4F
:1042A0000EDA9FEDE30B53EC102B9DED0E0B51EC52
:1042B000100BFCF7D3F9CDE90E016FF034000E4678
:1042C00000EB2650A0F2FF37C6F31300DA4940F0A6
:1042D0007F6646F040568842D8BF002408DDD749A3
:1042E0008142C8BF012403DC0024A6F580167F1C90
:1042F000D348784400EBC4000F9690ED00CB9DEDC1
:104300000E0B53EC1C2B51EC100BFCF799F99DEDA7
:104310000E0B41EC1B0B53EC1C2B51EC100BFCF760
:10432000EEF841EC100B51EC190B53EC102BFCF791
:104330000AFA41EC1D0B51EC1B0B53EC1D2BFCF747
:104340008DF941EC1A0BBF488DED10AB78441095F8
:1043500090ED000B4FF0005040EA660000EB844007
:104360008DED080B00F5002009909DED080B53EC36
:104370001C2B51EC100BFCF763F99DED0E1B53EC5D
:10438000112BFCF760F941EC100B53EC102B9DED59
:10439000100B51EC100BFCF761F99DED080B41EC93
:1043A0001C0B53EC102B9DED100B51EC100BFCF77C
:1043B00055F953EC1B2BFCF746F953EC1C2BFCF77F
:1043C0003FF953EC1D2BFCF749F941EC1C0B53EC66
:1043D0001A2B51EC1A0BFCF741F941EC1B0B9A48D4
:1043E0000621B0EE4B0AF0EE6B0A784400F0F8FAC2
:1043F000B0EE401AF0EE601AB0EE41DAF0EE61DA9B
:1044000053EC1B2B51EC1B0BFCF728F953EC1D2B29
:10441000FCF724F99DED100B41EC1B0B53EC1A2B10
:1044200051EC100BFCF76BF853EC1C2BFCF716F956
:1044300053EC1B2BFCF763F89DED100B41EC1B0BB1
:1044400053EC102B51EC100BFCF708F941EC1D0B51
:104450009FED7FEB53EC1E2BFCF751F853EC1B2B1D
:10446000FCF74DF80890CDE908519DED080B53EC91
:104470001E2B51EC100BFCF7E3F853EC1D2BFCF753
:10448000DFF853EC1B2BFCF7DEF89DED080B41EC3D
:104490001D0B53EC102B9DED100B51EC100BFCF78A
:1044A000DDF841EC1B0B53EC1A2B51EC1D0BFCF708
:1044B000D5F89DED080B41EC1A0B53EC102B51EC89
:1044C0001C0BFCF7CBF853EC1A2BFCF718F841EC5B
:1044D0001A0B51EC1B0B53EC1A2BFCF710F80C9039
:1044E000CDE90C519DED0C0B53EC1B2B51EC100B3B
:1044F000FCF7A6F853EC1A2BFCF7A5F841EC1B0BC4
:104500009FED550B53EC102B9DED0C0B51EC100B4C
:10451000FCF7A4F841EC1A0B9FED510B51EC1B0B6F
:1045200053EC102BFCF79AF841EC1B0B9FED4E0B54
:1045300053EC102B9DED0C0B51EC100BFCF78EF88F
:1045400053EC1B2BFBF7DBFF41EC100B4848784486
:1045500000EBC40090ED001B51EC100B53EC112B41
:10456000FBF7CDFF41EC1B0B3846FCF77CFACDE99D
:10457000080153EC1B2B51EC1A0BFBF7C0FF41EC6D
:10458000100B3C48784400EBC40090ED00CB51EC9C
:10459000100B53EC1C2BFBF7B2FF9DED081B53ECEB
:1045A000112BFBF7ACFF0690CDE906519DED080BF2
:1045B00053EC102B9DED060B51EC100BFCF740F863
:1045C00053EC1C2BFCF73CF853EC1A2BFCF738F897
:1045D00053EC1B2BFCF737F841EC100B9DED261B21
:1045E00053EC102B8DED001B00959DED260B51EC2F
:1045F000100BFCF733F89DED000B41EC1A0B53EC5C
:10460000102B9DED260B51EC100BFCF719F89DEDCE
:10461000061B53EC112B2FE0000000604715F73FFD
:10462000FE822B654715F73F44DF5DF80BAE543E25
:1046300000000000000040438E9803007AB60B0093
:10464000D22B0000002C00000A2B0000000000000C
:104650000000000000000840000000E009C7EE3F35
:10466000FD033ADC09C7EE3FF5015B14E02F3EBEC7
:104670009629000050290000FBF7F0FF53EC1A2B9D
:10468000FBF73DFF9DED060B41EC1A0B53EC102B95
:104690009DED000B51EC100BFBF7E0FFCDE90C0199
:1046A0009DED0C0B51EC1A0B53EC102BFBF727FF75
:1046B000CDE902010C46AA498C422FDB611A08435E
:1046C00018D19DED0C0B53EC102B9DED020B51EC12
:1046D000100BFBF7B5FF41EC1B0B9FEDA30B51EC4F
:1046E0001A0B53EC102BFBF70AFF53EC1B2BFCF7B8
:1046F000E3F92DD2022000F053FA00F021FA10EE77
:10470000901A18EE900A8DED020B8DED008B61F37F
:104710001E0003909DED020BFFF7BEBB944A24F0F0
:104720000041914214D39349214408437FF4EFACF4
:104730009DED0C0B53EC102B9DED020B51EC100B6F
:10474000FBF77EFF53EC1A2BFCF7B6F97FF6DFACD4
:1047500024F000408849894A002601EB205182421A
:104760002BDA481C4FF4801121FA00F02044844ACF
:10477000C0F30A517A44A1F2FF3192ED000B814A55
:104780008DED080BCA4020EA0202C0F3130040F48A
:104790008010C1F1140120FA01F60992002CB8BF73
:1047A00076429DED080B53EC102B9DED0C0B51EC5C
:1047B000100BFBF745FFCDE90C019DED0C0B51EC07
:1047C0001A0B53EC102BFBF79AFE9FED6F0B089022
:1047D000CDE9085153EC102B9DED080B51EC100B5B
:1047E000FBF73CFF41EC1B0B9FED690B53EC102BCF
:1047F0009DED080B51EC100BFBF730FF9DED0C0B02
:1048000041EC1C0B53EC102B9DED080B51EC100BE5
:10481000FBF716FF53EC1A2BFBF715FF9FED5E1B02
:1048200053EC112BFBF71AFF53EC1C2BFBF767FE25
:1048300041EC1A0B51EC1B0B53EC1A2BFBF75FFEF0
:10484000CDE902019DED020B53EC1B2B51EC100B3B
:10485000FBF7F6FE53EC1A2BFBF7F5FE9DED020B72
:1048600041EC1A0B53EC102B51EC100BFBF7F6FE3E
:10487000CDE908014A489DED080B0521784400F078
:10488000AFF89DED081B51EC100B53EC112BFBF70F
:10489000E5FE9DED021B53EC112BFBF7D4FECDE999
:1048A00006019DED020B53EC1A2B51EC100BFBF79C
:1048B000D5FE53EC1A2BFBF722FE9FED3B0B41EC90
:1048C0001A0B53EC102B9DED060B51EC100BFBF764
:1048D000B7FE9DED060B41EC1B0B53EC102B9DED31
:1048E000020B51EC100BFBF7B9FE53EC1B2BFBF743
:1048F0002AFF53EC1A2BFBF7A3FE9DED021B53EC92
:10490000112BFBF79DFE53EC192BFBF79CFECDE919
:10491000020101EB065001150029C8BF039015DC08
:104920009DED020B324651EC100BFCF785F8FFF7BA
:10493000FFF9042808BF00F013F932469DED020B81
:1049400051EC100BFCF778F8CDE902019DED020B5C
:1049500051EC180B53EC102BFBF780FEFFF73ABB22
:104960000000904000000000FE822B654715973C38
:1049700000CC904000346F3F01FCFFFF0000E03F9F
:10498000D8270000FFFF0F0000000000432EE63F85
:10499000396CA80C615C20BEEF39FAFE422EE63F6E
:1049A000A8260000000000000000000000000040F9
:1049B000BDEC088BBDEC06CBFFF720BABDEC088B35
:1049C000BDEC06CBFFF758BABDEC088BBDEC06CBAF
:1049D000FFF765BABDEC088BBDEC06CBFFF76DBBEE
:1049E00070B504462DED028B4D1E00EBC500B0EEF8
:1049F000408AF0EE608A90ED000B35F0060017D08B
:104A000053EC182B51EC100BFBF728FE41EC100B6C
:104A10006D1E04EBC50090ED001B51EC100B53EC28
:104A2000112BFBF76CFD41EC100B35F00600E7D1C4
:104A3000022D36D0042D1CD0062D1CBFBDEC028BE0
:104A400070BD53EC182B51EC100BFBF707FE94EDE7
:104A50000A1B53EC112BFBF752FD53EC182BFBF701
:104A6000FDFD94ED081B53EC112BFBF748FD41ECC9
:104A7000100B53EC182B51EC100BFBF7EFFD94EDE2
:104A8000061B53EC112BFBF73AFD53EC182BFBF7ED
:104A9000E5FD94ED040B53EC102BFBF730FD41ECDE
:104AA000100B53EC182B51EC100BFBF7D7FD94EDCA
:104AB000021B53EC112BFBF722FD53EC182BFBF7D9
:104AC000CDFD94ED001B53EC112BFBF718FDBDEC55
:104AD000028B41EC100B70BD9FED070B10B553EC32
:104AE000102B9FED070B51EC100BFBF72CFE41EC4C
:104AF000100B10BD000000000000000000000000CE
:104B0000000000000000F03F10B553EC112B51ECF9
:104B1000100BFBF7F4FC41EC100B10BD0000000083
:104B20009FED050B10B553EC102B51EC100BFBF760
:104B30000AFE41EC100B10BD000000000000000058
:104B40009FED050B10B553EC102B51EC100BFBF740
:104B500085FD41EC100B10BD00000000000000704E
:104B60009FED050B10B553EC102B51EC100BFBF720
:104B700075FD41EC100B10BD00000000000000109E
:104B800002E008C8121F08C1002AFAD17047704716
:104B9000002001E001C1121F002AFBD17047000074
:104BA0000149086070470000A00000202DE9FF5F68
:104BB00082B00021DDE90430020DDDF840B003438E
:104BC00018D044F61050A2F2FF3242431514119847
:104BD00001281FD0A5EB0B00401C5FEA000A4FF034
:104BE00000064E4FDFF83891B046504615D5CAF151
:104BF000000413E0119801244AA3012801D16FEAAF
:104C00000B010298119AC0E90031C0E9024206B0D6
:104C100000F08EB8CBF10000DFE704460021404AE7
:104C2000491842EB0450CDE9001012E0E00707D02C
:104C300032463B4640464946FBF710FD80468946D2
:104C400032463B4610461946FBF708FD06460F461E
:104C50006410002CEAD1DDE90401DDE90023BAF19A
:104C6000000F06DAFBF7FAFC42464B46FBF7F6FC70
:104C700005E0FBF768FD42464B46FBF764FD044642
:104C80000E460022284BFBF717FF03D84FF0FF30EA
:104C9000014607E00022254B20463146FBF72FFC5A
:104CA000FBF7F2FE102409E0002C0ADB0A220023A5
:104CB000FBF7DFFB039B30321A55641E50EA0102FA
:104CC000F2D1641C039AC4F111031444119A012A0D
:104CD00003D0012208430DD10AE0084304D000208C
:104CE0004FF0110B119072E7A3EB0B056D1E0DE059
:104CF0005B4504DD4FF0000205F1010504E003DA35
:104D00004FF00002A5F10105002AECD0029811999C
:104D1000C0E90231C0E9004579E700000000144015
:104D20000000F03F300000000000F0430000E03FD2
:104D300030BCBDE8C09F00002DE9FF4F95B09B46F9
:104D40008946064600250FE2252877D1002427460C
:104D5000F84A0121059400E0044316F8013F203B86
:104D600001FA03F01042F7D130782A2811D06FF001
:104D70002F033078A0F13002092A16D8059A44F0A2
:104D8000020402EB820203EB42021044761C0590FF
:104D9000EFE759F8042B0592002A03DA504244F455
:104DA0000054059044F00204761C30782E2816D169
:104DB00016F8010F44F004042A280DD06FF02F02DA
:104DC0003078A0F13003092B09D807EB870302EBF9
:104DD0004303C718761CF3E759F8047B761C307838
:104DE0006C280FD006DC4C2817D068280DD06A2814
:104DF00014D104E0742810D07A280FD10DE044F4C7
:104E000000140AE044F4801401E044F44014727881
:104E1000824202D104F58014761C761C3078662814
:104E20000BD013DC582877D009DC002875D0452832
:104E3000F6D04628F4D047281AD19DE118E063281F
:104E400035D0642879D0652812D195E1702873D0C7
:104E500008DC6728F1D069286FD06E280DD06F2844
:104E600006D1B5E073282CD0752875D0782874D079
:104E70005A46179990476D1C75E1C4F302500228F9
:104E800009D003280DD0D9F8001004280DD00D60EA
:104E900009F1040967E1D9F80010EA17C1E90052E5
:104EA000F6E7D9F800100D80F2E70D70F0E719F879
:104EB000041B8DF8001000208DF80100EA46012047
:104EC00003E059F804AB4FF0FF3061074FF00001E9
:104ED00002D40DE008F101018846B9420FDA80459D
:104EE000F8DB1AF808100029F4D108E008F10101F4
:104EF00088468142FADB1AF808100029F6D1059895
:104F00005B46A0EB080721463846179A00F097FA4F
:104F1000284400EB080507E04DE029E10DE01AF810
:104F2000010B5A4617999047B8F10108F7D25B4632
:104F300021463846179A13E142E00A220092C4F350
:104F400002524FF0000A022A08D059F804CB032A73
:104F50004FEAEC710AD00DE029E02AE009F10701DF
:104F600021F00702F2E802C1914609E00FFA8CFC39
:104F70004FEAEC71042A03D14FFA8CFC4FEAEC7132
:104F8000002907DA0A460021DCF1000C61EB02017E
:104F90002D2202E0220504D52B228DF804200122C7
:104FA00003E0E20701D02022F7E7904659E00A210A
:104FB00002E010220DE010214FF0000A00910BE0FA
:104FC00010224FF0000A44F004040827009203E086
:104FD00008224FF0000A0092C4F30252022A05D0C0
:104FE00059F804CB0021032A08D009E009F1070190
:104FF00021F00702F2E802C1914605E01FFA8CFC9D
:10500000042A01D10CF0FF0C4FF00008220728D52C
:10501000702806D0009B83F0100353EA0A0305D0E2
:105020000EE040228DF80420012208E05CEA010233
:1050300006D030228DF804208DF80500022290461B
:10504000009B83F0080353EA0A030AD15CEA0102D9
:1050500001D1620705D530228DF804204FF00108F8
:105060007F1E582804D034A003900EA802900DE0B3
:1050700036A0F9E753466046009AFBF7FAF98446F2
:105080000398825C0298401E029002705CEA010064
:10509000F0D1029806A9081A00F1200A600702D58B
:1050A00024F4803400E00127574502DDA7EB0A0015
:1050B00000E0002000EB0A01009005984144401AEE
:1050C0000590E00306D45B462146179A059800F048
:1050D000B6F90544002706E001A85A46C05D1799B5
:1050E00090476D1C7F1C4745F6DBE0030CD55B4603
:1050F0002146179A059800F0A2F9054404E03020F3
:105100005A46179990476D1C0099481E0090002937
:10511000F5DC08E0029802995A460078491C029191
:10512000179990476D1CBAF10001AAF1010AF1DC50
:1051300065E100000928010030313233343536375B
:1051400038396162636465660000000030313233D3
:105150003435363738394142434445460000000073
:1051600000F05BF90544761C307800287FF4ECAD44
:1051700019B0284600F04EB9620700D4062709F19D
:10518000070222F0070CFCE80223E14603F0004886
:105190005FEA080C02D00FF2702C0DE05FEA045CAD
:1051A00002D50FF2682C07E05FEAC47C02D00FF250
:1051B000602C01E0AFF2700C4FF0FF3823F0004399
:1051C000CDF850C065280CD006DC452809D046280B
:1051D0001DD047283DD13DE0662818D067287ED1F4
:1051E00038E00021112F01DB112000E0781CCDE90F
:1051F000000106A90EA8FFF7D9FCDDE90F010E9A00
:1052000003910021009207F1010A04914DE04FF053
:1052100000400097CDE9011006A90EA8FFF7C6FCD3
:10522000DDE90F0203920E9B11990022DDF80CA01C
:105230000093049211B9791C00EB010AB7EB0A0044
:1052400004D4C0F1FF3007F1010A0490AAEB070073
:10525000019044E0012F00DA01270021112F01DD28
:10526000112000E03846CDE9000106A90EA8FFF79D
:105270009DFCDDE90F010E9A03910021049100923B
:10528000BA4621070CD40399514500DA8A46BAF18F
:10529000010F05DD009AAAF10101515C302908D007
:1052A000B84202DA10F1040F06DA0121CDE901104B
:1052B00015E0AAF10101E9E7002805DC04990144A1
:1052C0000491AAEB000102E0411C514500DD8A4631
:1052D0000499401A401C01904FF0004002902007B2
:1052E00004D40198504501DBCDF8048000208DF8EE
:1052F0004F0002980DF14F07B0F1004F25D02B2041
:105300000E9002984FF0020800280CDA40420290FA
:105310002D200E9007E00A210298FBF7B2FA3031F7
:10532000029007F8011DB8F10001A8F10108F2DCB4
:1053300002980028EFD1791E0E980870307800F09E
:10534000200040F0450007F8020D12A8C01B00F134
:1053500007081498007800B1012000EB0A010198B9
:1053600001EBE07105984144401A401E0590E003AE
:1053700006D45B462146179A059800F060F805446C
:105380001498007818B15A46179990476D1CE0039D
:1053900024D55B462146179A059800F050F805443D
:1053A0001CE00498002807DBDDE90301884203DDE7
:1053B0000098405C179901E0179930205A469047B1
:1053C000049805F10105401C04900198401E0190CD
:1053D00004D12E205A46179990476D1CBAF100014E
:1053E000AAF1010ADDDC05E017F8010B5A4617990E
:1053F00090476D1CB8F10001A8F10108F4DC5B4690
:105400002146179A0598ABE62D0000002B000000FE
:105410002000000030BCBDE8C08F2DE9F0410446FB
:1054200000251E461746880404D405E0394620208E
:10543000B0476D1C641EF9D52846BDE8F0812DE902
:10544000F041044600251E469046C80301D530278A
:1054500000E02027880404D505E041463846B047DF
:105460006D1C641EF9D52846BDE8F081B5EEC00A72
:10547000F1EE10FA05DBF1EEC00AC0ED000A0020E3
:1054800070479FED030A80ED000A4FF0FF30704730
:105490000000000082B0CDE9000121F00040019041
:1054A0009DED000B02B051EC100B70472DE9F14F50
:1054B0002DED020B2DED108B88B0DFEDF9FAF948D8
:1054C000F94E0025C0ED00FAC0ED01FA06F5C871ED
:1054D000824664244FF4C8784FF4FA4BCDF8141088
:1054E00095FBF4F004FB10577FB995FBF4F14FF4F2
:1054F000C870414389464246EB48FBF7EDFB424604
:1055000009F5FA310598FBF7E7FB06EB8702DAEDC0
:10551000000A92ED000A691C6D1C30EE601A00EE64
:10552000101AF8EEC01A81EE210A30EE200A8AED38
:10553000000A92ED640ADAED010A30EE601A00EE1C
:10554000101A59468D42F8EEC01A81EE210A30EE4B
:10555000200A8AED010AC3DBD3460025B1468A46FC
:1055600095FBF4F004FB10577FB995FBF4F64FF46C
:10557000C870464342463146CB48FBF7ADFB424636
:1055800006F5FA310598FBF7A7FB09EB8700DBED81
:10559000000A90ED000A57466D1C30EE600ABD42CD
:1055A00080ED000AD0ED640A9BED011A00EE008A3E
:1055B00070EEC10AC0ED640A40EEA09A40EE208A67
:1055C000CEDBDFEDBA0AB1EE001A684688EE209A0B
:1055D00089EEA00A88EEA08A69EE000A79EE008AB8
:1055E00028EEA80A48EE480A00EEC10AFFF73EFF7F
:1055F0009DED000AF6EE000A684638EE801A38EE95
:10560000C00A21EE20BA60EE208A79EE4B9A39EE7C
:10561000689A29EEA90A08EE080AFFF727FF9DED10
:10562000000A6846C9EE80AA88EE00AA29EE090A97
:1056300008EE080AFFF71AFF9DED000A01A8C9EE5F
:10564000009A88EE009AB0EE680AFFF70FFF02A8F2
:10565000B0EE6F0AFFF70AFF03A8B0EE6F0AFFF77C
:1056600005FF04A8B0EE4B0AFFF700FF9DED01FA1D
:105670009DED040ADDED03EA9DED02EA2FEE008ABE
:1056800010EE100A0EEE6E8AFBF7CCF841EC1B0B05
:1056900018EE100AFBF7C6F841EC100B53EC102B78
:1056A0009FED83CB51EC1C0BFBF74DF853EC1B2B00
:1056B000FAF7D4FFFBF7C9F808EE900A18EE100AC3
:1056C000CDED018AFBF7AEF841EC100B53EC102B3B
:1056D0009FED79DB51EC1D0BFBF735F841EC1B0B13
:1056E0001EEE100AFBF79EF853EC1B2BFAF7B6FFE1
:1056F000FBF7ABF80EEE100A18EE100A8DED02EA79
:10570000FBF790F841EC100B51EC1D0B53EC102BF8
:10571000FBF719F841EC1B0B1EEE900AFBF782F821
:1057200053EC1B2BFAF79AFFFBF78FF80DEE100ADC
:105730001FEE100A8DED03DAFBF774F841EC1B0B3A
:1057400018EE100AFBF76EF841EC100B51EC1C0B35
:1057500053EC102BFAF7F7FF53EC1B2BFAF77EFFF5
:10576000FBF773F828EEAABA6DEE2AAA00EE100A2B
:1057700068EE8A8A0EEE29BA40EE29AA6DEE0A9AE0
:105780004EEE098ADFF838A18DED040A40EE099A41
:105790000AF5C8700025BB46CDF8180095FBF4F05B
:1057A00004FB10567EB995FBF4F74FF4C8704743DD
:1057B000424639463C48FBF78FFA424607F5FA3134
:1057C0000598FBF789FA374909EB8600632E90EDBF
:1057D000000AD1ED000A30EE600A80ED000AD0ED3B
:1057E000640A91ED011A70EEC10A2BEE001A2AEE3E
:1057F000800AC0ED640A0AEB860008EEA01A09EEE2
:10580000A00A80ED001A80ED640A13D1632095FB95
:10581000F0F64FF4C870761E46434746424606F5FA
:105820007A312748FBF78CFA26483A463118069811
:10583000FBF786FA6D1C5D45B0DBB0EE6FAAB0EEEB
:105840006FDAB0EE6F8A4FF0000925E13AEE6F0A89
:105850007DEE480A05A820EE000A00EEA00AFFF738
:1058600005FE3AEE2F0A7DEE080A07A820EE000A90
:1058700000EEA00AFFF7FAFDDDED050A9DED180A1E
:10588000F4EEC00AF1EE10FA06D3DDED070AF4EEED
:10589000C00AF1EE10FA1DD20BA0FEF739FAFFE0B4
:1058A00000000000200000205802002000FEF94601
:1058B000000000000000F03F000000000000F0BF0A
:1058C0007805002000DC0500436F6E766572676521
:1058D0000A000000F0EE4AFAB0EE4D8A00259FED76
:1058E00080CB00BF95FBF4F004FB105686B995FB06
:1058F000F4F74FF4C8704743424607F57A317A48C7
:10590000FBF7EAF97948424639180698FBF7E4F9BB
:105910000AEB860797ED000AD7ED640A20EE0A0A23
:1059200000EE8D0A10EE100AFAF77CFF41EC100B26
:10593000B0EE4C1AF0EE6C1AFEF712FA51EC100BA6
:10594000FAF783FF00EE100A6948632E00EB860128
:1059500081ED000AD0ED640A97ED001A41EE000ACD
:10596000C0ED640A90ED650A97ED641AD1ED001A56
:1059700001EE210A80ED650A03D13AEE20AA3DEE40
:1059800000DA6D1C5D45ADDB9FED5A0AF0EE080AAA
:10599000B0EE6F1A8DEE009ACAEE00BAB0EE480A69
:1059A00000EE609A19EE100A41EE60BAFAF73AFF7B
:1059B00041EC100B9FED50EBB0EE4E1AF0EE6E1A6C
:1059C000FEF7CEF9B0EE40CAF0EE60CA1BEE900AC8
:1059D000FAF728FF41EC100BB0EE4E1AF0EE6E1AFB
:1059E000FEF7BEF953EC1C2B51EC100BFAF787FDB8
:1059F00041EC100B9FED42DBB0EE4D1AF0EE6D1A4C
:105A0000FEF7AEF9B0EE40CAF0EE60CA1BEE900AA7
:105A1000FAF708FF53EC1C2BFAF795FEFAF715FF7F
:105A20000AEE100A19EE100AFAF7FCFE41EC100B10
:105A3000B0EE4E1AF0EE6E1AFEF792F9B0EE40CAD2
:105A4000F0EE60CA1AEE100AFAF7ECFE41EC100B09
:105A5000B0EE4E1AF0EE6E1AFEF782F953EC1C2BE4
:105A600051EC100BFAF74BFD41EC100BB0EE4D1A58
:105A7000F0EE6D1AFEF774F9B0EE40CAF0EE60CAAF
:105A800019EE100AFAF7CEFE53EC1C2BFAF75BFE68
:105A9000FAF7DBFE0DEE100A1A998945FFF6D6AE2D
:105AA0006AEE0B0A1848B1EE4D0A4DEE2A0AC0ED17
:105AB000000A6AEE280A4DEE290AC0ED010A60EEDE
:105AC0000B0A20EE280A4AEE2A0A0AEE290AC0ED3D
:105AD000020A80ED030A08B000F018B800F01CB804
